:100000000C94D3050C94ED200C94C6200C94FB05A5
:100010000C9433220C94FB050C94FB050C94FB050B
:100020000C94FB050C94FB050C94FB050C94FB0550
:100030000C94FB050C94FB050C94FB050C94FB0540
:100040000C947C200C94FB050C94FB050C94FB0594
:100050000C94FB050C94FB050C94FB050C94FB0520
:100060000C9414210C94FB054641494C0053454E19
:10007000534F52002E002D0044004900500025002F
:100080004D494E202E2E204D415800005EBCE261AD
:100090003FDD83C29C7E20A3FD1F41009D23BE4601
:1000A000DB65F88C11AF32CA57E97400000000001C
:1000B0003E5B4F5B3E3E6B4F6B3E1C3E7C3E1C18D6
:1000C0003C7E3C181C577D571C1C5E7F5E1C001834
:1000D0003C1800FFE7C3E7FF0018241800FFE7DB28
:1000E000E7FF30483A060E2629792926407F050584
:1000F00007407F05253F5A3CE73C5A7F3E1C1C08C1
:10010000081C1C3E7F14227F22145F5F005F5F0685
:10011000097F017F006689956A606060606094A2D3
:10012000FFA29408047E040810207E201008082AEC
:100130001C08081C2A08081E101010100C1E0C1E8B
:100140000C30383E3830060E3E0E0600000000002F
:1001500000005F00000007000700147F147F1424D4
:100160002A7F2A1223130864623649562050000859
:10017000070300001C2241000041221C002A1C7FB2
:100180001C2A08083E08080080703000080808088B
:1001900008000060600020100804023E5149453EFE
:1001A00000427F400072494949462141494D331878
:1001B00014127F1027454545393C4A4949314121B0
:1001C0001109073649494936464949291E00001494
:1001D00000000040340000000814224114141414DC
:1001E00014004122140802015909063E415D594E8E
:1001F0007C1211127C7F494949363E414141227FA0
:100200004141413E7F494949417F090909013E4138
:100210004151737F0808087F00417F410020404121
:100220003F017F081422417F404040407F021C0272
:100230007F7F0408107F3E4141413E7F0909090646
:100240003E4151215E7F0919294626494949320319
:10025000017F01033F4040403F1F2040201F3F409F
:1002600038403F6314081463030478040361594958
:100270004D43007F414141020408102000414141AB
:100280007F04020102044040404040000307080090
:1002900020545478407F2844443838444444283813
:1002A0004444287F385454541800087E090218A486
:1002B000A49C787F0804047800447D4000204040DE
:1002C0003D007F1028440000417F40007C047804FA
:1002D000787C080404783844444438FC18242418F2
:1002E00018242418FC7C080404084854545424049A
:1002F000043F44243C4040207C1C2040201C3C40C7
:1003000030403C44281028444C9090907C446454E5
:100310004C440008364100000077000000413608D8
:100320000002010204023C2623263C1EA1A1611208
:100330003A4040207A385454555921555579412234
:1003400054547842215554784020545579400C1E1D
:1003500052721239555555593954545459395554C6
:1003600054580000457C410002457D420001457C17
:10037000407D1211127DF0282528F07C545545004F
:100380002054547C547C0A097F4932494949323A05
:100390004444443A324A4848303A4141217A3A4248
:1003A000402078009DA0A07D3D4242423D3D40401E
:1003B000403D3C24FF2424487E4943662B2FFC2FDC
:1003C0002BFF0929F620C0887E0903205454794167
:1003D0000000447D413048484A32384040227A008B
:1003E0007A0A0A727D0D19317D2629292F2826299E
:1003F00029292630484D40203808080808080808F0
:1004000008382F10C8ACBA2F102834FA00007B002F
:100410000008142A142222142A14085500550055E5
:10042000AA55AA55AAFF55FF55FF000000FF00106E
:100430001010FF00141414FF001010FF00FF101024
:10044000F010F0141414FC001414F700FF0000FF67
:1004500000FF1414F404FC141417101F10101F10C4
:100460001F1414141F00101010F0000000001F10C3
:100470001010101F10101010F010000000FF1010CE
:1004800010101010101010FF10000000FF140000DA
:10049000FF00FF00001F10170000FC04F4141417E5
:1004A00010171414F404F40000FF00F714141414CB
:1004B000141414F700F7141414171410101F101F3D
:1004C000141414F4141010F010F000001F101F008A
:1004D00000001F14000000FC140000F010F01010C9
:1004E000FF10FF141414FF141010101F0000000060
:1004F000F010FFFFFFFFFFF0F0F0F0F0FFFFFF0054
:1005000000000000FFFF0F0F0F0F0F384444384466
:10051000FC4A4A4A347E02020606027E027E0263DA
:10052000554941633844443C04407E201E20060265
:100530007E020299A5E7A5991C2A492A1C4C720142
:10054000724C304A4D4D303048784830BC625A4683
:100550003D3E494949007E0101017E2A2A2A2A2A74
:1005600044445F444440514A444040444A5140005E
:1005700000FF0103E080FF000008086B6B083612E3
:10058000362436060F090F06000018180000001068
:1005900010003040FF0101001F01011E00191D174E
:1005A00012003C3C3C3C0000000000000103070F2F
:1005B0001F3F7F0080C0E0F0F8FCFE000000002438
:1005C0000027002A00DB40A4A62EAF2000A1C8D33C
:1005D00000408DAED580A800000000250028002B2B
:1005E00000000060000000000000000000000000AB
:1005F0000000E0000000000000000000000000001B
:1006000001E0000000000000000000000000000108
:10061000F00000000000000000000000000003F0F7
:100620000000000000000000000000000007F000D3
:1006300000000000000000000000000007F80000BB
:1006400000000000000000000000000FF8000000A3
:1006500003C0007E000001E0007F0FF800000003EF
:10066000C000FE000001E000FFEFF800000003C042
:1006700000FE000001E000FFFFF800000003C000E2
:10068000F00000000F007FFE7FC0000003C000F0FC
:100690000000000F003FFE7FF83FF1FBCFFCFEF3B0
:1006A000BC3DEFE01FFE7FFF7FFBFFDFFEFEFFBCD8
:1006B0003DEFE01FC6FFFF7FFBFFDFFEFEFFBC3DFF
:1006C000EFE00FE3C7FE787BC3DE1EF0FFBC3DEF1B
:1006D0000007FF87FC787BC3DE1EF0F83C3DEF008F
:1006E00001FFFFF0007BC3C01EF0F03C3DEF0001B6
:1006F000F37FE03FFBC3CFFEF0F03C3DEF0003E3B0
:100700003F807FFBC3DFFEF0F03C3DEF0007E73C9E
:1007100000787BC3DE1EF0F03C3DEF0007FFBE001B
:10072000787BC3DE1EF0F03C3DEF0007FFFE007853
:100730007BC3DE1EF0F03C3DEF000FFFFE007FFBB1
:10074000FFDFFEF0F03FFDEFE00FFFFF007FFBFF5C
:10075000DFFEF0F03FFDEFE00FF9FF003E79F9CF4B
:100760009EF0F01F3DE7E01FF1FF000000000000D9
:100770000000000000001F80FF007FFFFFFFFFFF61
:10078000FFFFFFFFE01C007F007FFFFFFFFEB46D57
:10079000888D18E000001F007FFFFFFFFE95AD7DF4
:1007A000B577E000000F007FFFFFFFFEA5AD9D8D38
:1007B00019E0000006007FFFFFFFFEB5ADEDB57E3E
:1007C000E0000000000001800000000000000000C8
:1007D00000038000000000000000000007C00000CF
:1007E0000000000000000007C00000000000000042
:1007F00000000FC00000000000000000001FE0002B
:1008000000000000000000001FE0000000000000E9
:100810000000003FE00000000000000000003FF08A
:100820000000000000000000007FF0000000000059
:1008300000001FF87FF0000000000000003FFE7F76
:10084000F0000000000000003FFF7FF0000000000B
:100850000000001FFFFBE0000000000000000FFF91
:10086000F9FFC00000000000000FFFF9FFF80000D2
:100870000000000007FFF1FFFF0000000000000380
:10088000FC73FFFF80000000000001FE3FFFFF80BF
:10089000000000000000FF1E0FFF0000000000002D
:1008A000007FFE1FFC000000000000003FFFFFF87B
:1008B000000000000000000FDFFFE000000000006B
:1008C00000001F19FFC0000000000000003F3CFFB7
:1008D00000000000000000007E7CF8000000000026
:1008E0000000007FFE7C0000000000000000FFFF11
:1008F000FC0000000000000000FFFFFE0000000000
:1009000000000000FFFFFE0000000000000001FFEB
:10091000EFFE0000000000000001FFCFFE0000001D
:100920000000000003FF07FE0000000000000003BD
:10093000FC07FE0000000000000003F003FE0000C2
:100940000000000000018000FE0000000000000028
:100950000000007E000000000000000000003E00DB
:100960000000000000000000000C0000000000007B
:10097000078000FC000003C0000000078001FC00AD
:100980000003C0000000078001FC000003C000005D
:1009900000078001E00000001E000000078001E069
:1009A0000000001E007FE3F79FF9FDE7787BDFC0C2
:1009B000FFF7FFBFFDFDFF787BDFC0FFF7FFBFFD47
:1009C000FDFF787BDFC0F0F787BC3DE1FF787BDE81
:1009D00000F0F787BC3DE1F0787BDE0000F7878010
:1009E0003DE1E0787BDE007FF7879FFDE1E0787BEB
:1009F000DE00FFF787BFFDE1E0787BDE00F0F787E0
:100A0000BC3DE1E0787BDE00F0F787BC3DE1E078BB
:100A10007BDE00F0F787BC3DE1E0787BDE00FFF78E
:100A2000FFBFFDE1E07FFBDFC0FFF7FFBFFDE1E0BF
:100A30007FFBDFC07CF3F39F3DE1E03E7BCFC00056
:100A400000000000000000000000FFFFFFFFFFFFAC
:100A5000FFFFFFFFC0FFFFFFFFFD68DB111A31C082
:100A6000FFFFFFFFFD2B5AFB6AEFC0FFFFFFFFFDFB
:100A70004B5B3B1A33C0FFFFFFFFFD6B5BDB6AFD87
:100A8000C045432046414E2050494400302E2E2E72
:100A90003130762050574D00250030002E00782050
:100AA00000207C20003D200030002E002078200017
:100AB000203D20002B002B00730048595354455211
:100AC00045534953002B0041444A2E0054454D5094
:100AD00000730054494D454F5554004F4E004F464A
:100AE00046004D454D2053435245454E005249471F
:100AF00048543E003C4C45465400524F54415445E6
:100B000020554900524F5441544520554900534106
:100B10005645004E4F5045004155544F53415645A0
:100B2000004C4F4144004241434B0053455454490B
:100B30004E475300733A00733A00434F4E535441AB
:100B40004E540053454E534641494C004D4F444589
:100B50000057524F4E47002200FF210000000008BE
:100B60000002010000030407000000000000000074
:100B700000000000230026002900040404040404EB
:100B8000040402020202020203030303030301023C
:100B9000040810204080010204081020010204080B
:100BA0001020D522F33411241FBECFEFD8E0DEBFD2
:100BB000CDBF11E0A0E0B1E0EEE4F2E702C00590A5
:100BC0000D92A63DB107D9F724E0A6EDB1E001C032
:100BD0001D92AC3DB207E1F715E0C2EDD5E004C0CF
:100BE0002197FE010E94C837C13DD107C9F70E9475
:100BF00093230C941A390C940000860F971F8417C6
:100C0000950744F02817390744F4821B930B841787
:100C10009507ACF7820F931FF2CF089508950895BA
:100C20000895AF92BF92CF92DF92EF92FF920F930F
:100C30001F93CF93DF936C017B018B01040F151F72
:100C4000EB015E01AE18BF08C017D10759F06991DA
:100C5000D601ED91FC910190F081E02DC60109953E
:100C6000892B79F7C501DF91CF911F910F91FF90EB
:100C7000EF90DF90CF90BF90AF900895833081F0D8
:100C800028F4813099F08230A9F008958730A9F0D6
:100C90008830C9F08430B1F4809180008F7D03C02A
:100CA000809180008F7780938000089584B58F773E
:100CB00084BD089584B58F7DFBCF8091B0008F7780
:100CC0008093B00008958091B0008F7DF9CFCF93CD
:100CD000DF93282F30E0F901E45AF44F8491F901B1
:100CE000E257F44FD491F901E658F44FC491CC2364
:100CF000A1F081110E943E06EC2FF0E0EE0FFF1FE5
:100D0000E059F44FA591B491EC91ED2381E090E08E
:100D100009F480E0DF91CF91089580E090E0FACF70
:100D20001F93CF93DF93282F30E0F901E45AF44F5B
:100D30008491F901E257F44FD491F901E658F44F48
:100D4000C491CC23A9F0162F81110E943E06EC2FEE
:100D5000F0E0EE0FFF1FE952FA4FA591B4918FB763
:100D6000F894EC91111108C0D095DE23DC938FBF6D
:100D7000DF91CF911F910895DE2BF8CFCF93DF93B2
:100D800090E0FC01E257F44F24918658944FFC0107
:100D900084918823C9F090E0880F991FFC01E554E5
:100DA000FA4FA591B491FC01E952FA4FC591D49143
:100DB00061110DC09FB7F8948C91209582238C937C
:100DC0008881282328839FBFDF91CF9108956230C7
:100DD00051F49FB7F8943C91822F809583238C9394
:100DE000E8812E2BEFCF8FB7F894EC912E2B2C931C
:100DF0008FBFEACFCF93DF93EC0161E08BE00E94DD
:100E0000BE06209731F460E08BE0DF91CF910C9427
:100E10009006CF3FD10511F461E0F6CFE7E6FBE0A5
:100E2000E491E33029F140F4E130B1F0E230D9F05F
:100E3000C038D1058CF7E7CFE73021F1E83051F128
:100E4000E430B1F780918000806280938000D0937D
:100E50008B00C0938A0004C084B5806884BDC7BD80
:100E6000DF91CF91089584B5806284BDC8BDF8CF6D
:100E700080918000806880938000D0938900C09327
:100E80008800EECF8091B00080688093B000C0935E
:100E9000B300E6CF8091B00080628093B000C09331
:100EA000B400DECF3FB7F8948091AC029091AD02D0
:100EB000A091AE02B091AF0226B5A89B05C02F3F0E
:100EC00019F00196A11DB11D3FBFBA2FA92F982F70
:100ED0008827BC01CD01620F711D811D911D42E06B
:100EE000660F771F881F991F4A95D1F708958F9233
:100EF0009F92AF92BF92CF92DF92EF92FF926B01DF
:100F00007C010E9452074B015C01C114D104E10431
:100F1000F104B9F00E945207681979098A099B09FE
:100F2000683E73408105910580F321E0C21AD10823
:100F3000E108F10888EE880E83E0981EA11CB11C20
:100F4000E4CFFF90EF90DF90CF90BF90AF909F9055
:100F50008F9008952FB7F8946091A8027091A9021C
:100F60008091AA029091AB022FBF08950F931F9317
:100F70000E94AA070E94AA0700914D0410914E04F6
:100F800020914F0430915004601B710B820B930B26
:100F9000633371058105910518F081E080935E044B
:100FA0000E94AA0760934D0470934E0480934F04EF
:100FB000909350041F910F9108950895EF92FF921E
:100FC0000F931F93CF93DF93EC01EC80FD806E15A0
:100FD0007F050CF070C057FF04C0240F351F50E090
:100FE00040E08E819F81FA01E20FF31F8E179F0769
:100FF0001CF49C01241B350B121613060CF05BC06D
:10100000922F842F8695869586958E9DD0018F9DF3
:10101000B00D11246A0F7B1FAF8DB8A1A60FB71FAB
:10102000477049F188E0841B482F682F70E0FB016E
:10103000ED54FA4FE491281708F063C0621B710960
:101040002FEF30E002C0359527956A95E2F7E2234D
:101050000130110539F0B0F10230110561F58C91C4
:10106000E82702C08C91E82BEC93941720F12C8197
:101070003D81A20FB31FE92FE41BE83078F0023066
:10108000110521F58E2F9C9190959C932C813D818B
:10109000A20FB31F88508830B0F7E770EE2359F0E5
:1010A000F0E0E555FA4FE49101301105F9F010F147
:1010B0000230110519F1DF91CF911F910F91FF902F
:1010C000EF900895E0958C91E823CECF81E0011553
:1010D000110509F480E081959E2F8C932C813D8130
:1010E000A20FB31F98509830C0F7D7CF8C91E82B40
:1010F000EC93E1CFE0958C91E823FACF8C91E8272F
:10110000F7CF0130110509F4ADCFE0F2023011053F
:1011100009F4A5CFAE0DBF1DAECF0F931F93CF9394
:10112000DF9377FF04C0260F371F70E060E0DC011B
:101130001496CD91DC91FB01E20FF31FCE17DF0770
:101140001CF49E01261B370B121613064CF5FA01F0
:1011500057FD3796A3E0F595E795AA95E1F7EC9F43
:10116000D001ED9FB00DFC9FB00D11246A0F7B1FC5
:10117000DC015F96ED91FC91E60FF71F4770552754
:1011800081E090E001C0880F4A95EAF7482F0130CE
:10119000110559F0A8F02E0F3F1F02301105E1F0A4
:1011A000DF91CF911F910F9108952E0F3F1FE217EE
:1011B000F307B1F38191DF011197842B8C93F7CF63
:1011C00080952E0F3F1FE217F30751F39191DF0136
:1011D000119798239C93F7CFE217F30709F38191B6
:1011E000DF01119784278C93F7CF0F931F93FA0198
:1011F000DC0156964C9156974230E9F04330A1F10C
:10120000413061F514964D915C91DA01AE1BBF0B34
:10121000FD01E21BF30B77FD0BC0DC0116964D912F
:101220005C916417750724F4AB01BF010E948D081F
:101230001F910F91089514964D915C91DA01A61BB0
:10124000B70BBD0161507109DC0116964D915C919F
:10125000DA01AE1BBF0BFD01E21BF30B77FDE8CFFC
:10126000AF010E94DE07E4CF16964D915C91DA0142
:10127000A61BB70BBD0161507109CDCF0F931F9312
:10128000FA01DC0156964C9156974230A9F0433052
:1012900091F1413019F514964D915C91DA01AE1B34
:1012A000BF0BFD013197F7FD04C0AB01BF010E94E8
:1012B000DE071F910F91089514964D915C91DA010C
:1012C000A61BB70BBD01DC0116964D915C91DA01AE
:1012D000AE1BBF0BFD013197621B730BF7FDE9CF0E
:1012E000DC0116964D915C91E417F50714F7AF01F8
:1012F0000E948D08DECF16964D915C91DA01A61BF7
:10130000B70BBD01621B730BCECFFC0177FD64C030
:1013100080859185681779070CF05EC057FD5CC029
:1013200082859385481759070CF056C0868982300C
:10133000B1F0833029F1813041F484819581841B9F
:10134000950BAB01BC01615071092130310509F1E8
:1013500008F443C02230310509F463C00895848144
:101360009581DC01A61BB70BBD0161507109868117
:101370009781DC01A41BB50BAD0141505109E5CFAC
:1013800086819781861B970BBA01AC0141505109A8
:10139000DCCFCA0157FD0796A3E095958795AA95DE
:1013A000E1F7A481B5818A9F90018B9F300D9A9FB0
:1013B000300D1124620F731F078CF0A1E02DE60F92
:1013C000F71F4770552721E030E001C0220F4A95F2
:1013D000EAF78081822B80830895CA0157FD079622
:1013E00033E0959587953A95E1F7A481B5818A9F79
:1013F00090018B9F300D9A9F300D1124620F731F47
:10140000078CF0A1E02DE60FF71F4770552781E00C
:1014100090E001C0880F4A95EAF780959081892372
:10142000DACFCA0157FD079623E0959587952A954F
:10143000E1F7A481B5818A9F90018B9F300D9A9F1F
:10144000300D1124620F731F078CF0A1E02DE60F01
:10145000F71F4770552721E030E001C0220F4A9561
:10146000EAF780818227B7CF08958EBD00000DB4C2
:1014700007FEFDCF8EB508958CBD9DBD08950895DE
:10148000FC016370668B8481958126813781613090
:1014900039F0633029F09187808733872287089558
:1014A000318720879387828708952F923F924F92AA
:1014B0005F926F927F928F929F92AF92BF92CF92E4
:1014C000DF92EF92FF920F931F93CF93DF93CDB7ED
:1014D000DEB76A970FB6F894DEBF0FBECDBF9A8F06
:1014E000898F7A8369834A01D22E18870F83370147
:1014F000BC2CDC0159962D913C915A972115310550
:1015000009F015C118968D919C9119976817790764
:101510000CF0D7C11A968D919C91481759070CF081
:10152000D0C14C2C512CB6E0CB9E600D711D112406
:101530007C876B87161617060CF0C3C1EA2DF0E006
:10154000FA87E98793E0EE0FFF1F9A95E1F7F88B92
:10155000EF87CF01840F951F181619060CF0B1C143
:10156000A98DBA8D58968C91811104C0BFEABD1522
:1015700008F4D394A98DBA8DED91FC911197028452
:10158000F385E02DCD010995B5E0DB9EC001112466
:10159000E981FA81FC83EB83312C212C9C012555B8
:1015A0003F4F388F2F8B4A2D50E05E8B4D8BEF894C
:1015B000F88DE20DF31D44919E828D82D12CC12CB9
:1015C00069817A81620D731D7A8B698B842F90E01B
:1015D0009C8B8B8BE98DFA8DA081B18140FF82C0FD
:1015E000F1E0BF126FC0AF126DC01C96ED91FC917F
:1015F0002F813885A4014C0D5D1D69897A89898DFB
:101600009A8D0995EB89FC89F595E7954E2F5FEF4B
:10161000C51AD50A6D817E818D899E89680F791FD3
:101620007E836D8398E0C916D10481F6AFEF2A1A44
:101630003A0AEB81FC81E40DF51DFC83EB83F5E0B8
:101640002F16310409F0B3CF2F81388526153705C1
:10165000B9F0A98DBA8DED91FC91B1E0BB1257C0E4
:10166000AB1255C069817A816B5F7F4F0088F18929
:10167000E02D830128E030E0A401898D9A8D099541
:10168000A98DBA8DED91FC9111970688F789E02D0F
:10169000CD016A960FB6F894DEBF0FBECDBFDF91C5
:1016A000CF911F910F91FF90EF90DF90CF90BF905F
:1016B000AF909F908F907F906F905F904F903F90F2
:1016C0002F9009941E96ED91FC91EF80F884098586
:1016D0001A8592014D815E816B817C81898D9A8D05
:1016E000099590CF2F8138852615370509F48ACFC3
:1016F00031E0B31207C0A31205C01C96ED91FC9116
:10170000930178CF1E96ED91FC917301E0CF6B852C
:101710007C85641975090684F785E02D73010F85B2
:1017200018899201A401898D9A8D0995A9CFF90193
:1017300034969491329745915491D91AB7E0DB9E33
:10174000400D511D1124F901259134913C8B2B8BB7
:10175000FA0125903490FA013296749031963491C2
:10176000398B329664903196449041E04C1518F0D4
:101770004A1508F07FC0662D062C000C770B7C8381
:101780006B83842D042C000C990B9E838D83A98D73
:10179000BA8DED91FC9111970284F385E02DCD0176
:1017A0000995512CD12CC12CEA2DF0E0FA87E9875C
:1017B0002B2D30E03C872B87A401440D511D47FCA5
:1017C0005A95588F4F8B69817A81660D711D67FC20
:1017D0007A957E876D877989C71608F051CF2C2DB1
:1017E00030E04D815E81420F531FA985BA854A9F23
:1017F000C0014B9F900D5A9F900D1124FC01E80DE4
:10180000F91DF88BEF87852D612C4F89588D420F7C
:10181000531F5E8B4D8B671408F050C044244394D3
:10182000480E877041F4C1010196EB89FC89E20DF5
:10183000F31DD4901C01D7FE19C0A98DBA8DED916E
:10184000FC91662D70E0B1E0BB1219C0AB1217C05D
:101850002D853E85620F731F0484F585E02D2F8151
:1018600038854D895E89898D9A8D0995DD0C639443
:10187000842DD1CF1E821D821C821B8288CF4B817A
:101880005C81640F751FAB85BC856A9FC0016B9F2F
:10189000900D7A9F900D112469817A81680F791FCC
:1018A0000684F785E02DEF80F88409851A859D016F
:1018B0004F855889898D9A8D0995D8CF570CC39437
:1018C0008ACF6A960FB6F894DEBF0FBECDBFDF9108
:1018D000CF911F910F91FF90EF90DF90CF90BF902D
:1018E000AF909F908F907F906F905F904F903F90C0
:1018F0002F9008958F929F92AF92CF92EF92FF9286
:101900000F931F93CF93DF93EC01262F898D9A8D30
:10191000009709F051C06A30D1F41D861C868D896C
:1019200048E0849F900111248E859F85820F931F2C
:101930009F878E8781E090E0DF91CF911F910F917B
:10194000FF90EF90CF90AF909F908F9008956D3063
:1019500089F3CC88AD888F898823C1F08C859D85DB
:1019600036E0C39E800D911D112448855985481786
:10197000590764F44E855F851D861C8638E0A39E5A
:10198000C0011124840F951F9F878E87EA88FB88EA
:10199000088919894E855F856C857D85CE010E94F9
:1019A000550A2C898C859D8546E0249F800D911DCC
:1019B00011249D878C87BECF6A3069F41D861C86F2
:1019C000FC013896E4912D898E859F85E29F800DDC
:1019D000911D1124ADCF6D3009F4ACCFFC013496CC
:1019E0003491631708F4A6CF3296E491E61708F411
:1019F000A1CFFC01329685909490462F431B342F43
:101A000047E0349F800C911C1124F40132963491EC
:101A10003196E4913323A9F1EE2399F1CC88F401B6
:101A20003596E491AD884F89442301F10E2E000CC8
:101A3000FF0BE30FF11DCE9EA001CF9E500D112490
:101A40006C857D85460F571F6885798564177507F6
:101A50006CF44E855F851D861C86FC013896E491EA
:101A6000AE9E400D511D11245F874E87EA88FB888A
:101A7000088919894E855F856C857D85CE010E9418
:101A8000550AF4013496E4912C898C859D85E29F5A
:101A9000800D911D11248DCF682F88E994E00C945E
:101AA0007A0C0F931F93CF93DF938C01D0E0C0E0AB
:101AB000F801EC0FFD1F6491662341F088E994E082
:101AC0000E947A0C892B11F02196F2CFCE01DF9182
:101AD000CF911F910F9108956F927F928F929F9255
:101AE000AF92BF92CF92DF92EF92FF920F931F932C
:101AF000CF93DF93EC016B015A0139014801E88172
:101B0000F9810284F385E02D0995E881F981028845
:101B1000F389E02D87019301A501B601CE01099556
:101B2000A501480D591D41505109E881F9810288EC
:101B3000F389E02D9301B601CE010995E881F98181
:101B40000088F189E02D9401A501B601CE01099527
:101B5000C60CD71CB60161507109E881F981008873
:101B6000F189E02D9401A501CE010995E881F98163
:101B70000688F789E02DCE01DF91CF911F910F915B
:101B8000FF90EF90DF90CF90BF90AF909F908F909D
:101B90007F906F9009946F927F928F929F92AF92F5
:101BA000BF92CF92DF92EF92FF920F931F93CF934A
:101BB000DF935C01EB016A01490138018701DC0117
:101BC000ED91FC916217730719F5641675062CF0F8
:101BD000962D872D3A01C92ED82E96012619370940
:101BE0002F5F3F4F048CF58DE02DA301BE01C50191
:101BF0000995DF91CF911F910F91FF90EF90DF90AA
:101C0000CF90BF90AF909F908F907F906F900895EE
:101C10004615570591F42617370724F0892D4B01F7
:101C2000C22FD82F9E01281939092F5F3F4F068CEC
:101C3000F78DE02DA601B401DACF0284F385E02D03
:101C40000995D501ED91FC910488F589E02D83017A
:101C50009401A601BE01C5010995D501ED91FC9144
:101C60000688F789E02DC501DF91CF911F910F9173
:101C7000FF90EF90DF90CF90BF90AF909F908F90AC
:101C80007F906F900994EF92FF920F931F93DC0166
:101C90001A960D911C911B9718962D913C911997AE
:101CA000ED91FC9100A0F1A1E02D7B0150E040E01E
:101CB00070E060E009951F910F91FF90EF900895FB
:101CC0004F925F926F927F928F929F92AF92BF924C
:101CD000CF92DF92EF92FF920F931F93CF93DF93F8
:101CE0006C012B015A0139014801DC01ED91FC9195
:101CF0000284F385E02D0995E201640C751CD60180
:101D0000ED91FC91C615D7055CF40088F189E02DB2
:101D100087019401A501BE01C60109952196EFCF67
:101D20000688F789E02DC601DF91CF911F910F91B1
:101D3000FF90EF90DF90CF90BF90AF909F908F90EB
:101D40007F906F905F904F9009948F929F92AF9287
:101D5000BF92CF92DF92EF92FF920F931F93CF9398
:101D6000DF93EC015B014A016901E881F98102849A
:101D7000F385E02D099595012C0D3D1D215031096C
:101D8000E881F9810488F589E02D78018401A401B6
:101D9000B501CE010995E881F9810688F789E02D22
:101DA000CE01DF91CF911F910F91FF90EF90DF90C7
:101DB000CF90BF90AF909F908F9009948F929F92F9
:101DC000AF92BF92CF92DF92EF92FF920F931F9349
:101DD000CF93DF93EC015B014A0169017801E8814F
:101DE000F9810284F385E02D0995C80CD91C860180
:101DF00001501109E881F9810488F589E02D9501E8
:101E0000A401B501CE010995E881F9810688F78919
:101E1000E02DCE01DF91CF911F910F91FF90EF90B8
:101E2000DF90CF90BF90AF909F908F900994EF92EA
:101E3000FF920F931F93DC01ED91FC9100A0F1A1A3
:101E4000E02D09951F910F91FF90EF9008950F934A
:101E50001F93DC01ED91FC91068CF78DE02D099527
:101E60001F910F9108950F931F93DC01ED91FC9149
:101E7000048CF58DE02D09951F910F910895DC01DB
:101E8000ED91FC910084F185E02D09943F924F92F1
:101E90005F926F927F928F929F92AF92BF92CF92FA
:101EA000DF92EF92FF920F931F93CF93DF935C012A
:101EB0007B014A016901390187E0680E711C93E0DA
:101EC000759467949A95E1F72B01400E511E10E02E
:101ED00000E0312CD0E0C0E0CE0187709927330CB0
:101EE000892B59F4FE0183E0F595E7958A95E1F792
:101EF000E00FF11FE80DF91D349037FE0AC021E014
:101F000030E0A701B5016C0F7D1F88E994E00E94C5
:101F10003F0F2196CC16DD06F9F68FEFE81AF80A86
:101F2000060D171DE414F504A9F6DF91CF911F915A
:101F30000F91FF90EF90DF90CF90BF90AF909F9068
:101F40008F907F906F905F904F903F9008952F9269
:101F50003F924F925F926F927F928F929F92AF9239
:101F6000BF92CF92DF92EF92FF920F931F93CF9386
:101F7000DF9300D000D000D0CDB7DEB73C016A01BE
:101F80003E832D83FC82EB825801A41AB50AB7FE6A
:101F900003C0B194A194B1088D809E80861A970ADF
:101FA00097FE03C09194819491088A149B045CF07D
:101FB000902F812F0D811E819D838E839C2D8D2DD1
:101FC0006B01692F782F0C151D055CF09D818E81AA
:101FD0007E836D83692F782F902F812F8601C92EE4
:101FE000D82E1601201A310A2B012D813E81421A6A
:101FF000530A57FE03C0519441945108710137FEB2
:1020000003C03FEFE31AF30AF594E7948D819E81B4
:10201000861797075CF5A1E0B0E0BA83A983C016E4
:10202000D1064CF1D301ED91FC910484F585E02DAE
:102030002B813C81A8016D817E818A149B041CF058
:102040004D815E81B801C3010995E418F508F7FEDA
:102050000AC02D813E8189819A81280F391F3E83D4
:102060002D83E20CF31C0F5F1F4FD9CF2FEF3FEFF3
:102070003A832983D4CF26960FB6F894DEBF0FBEDD
:10208000CDBFDF91CF911F910F91FF90EF90DF9027
:10209000CF90BF90AF909F908F907F906F905F9008
:1020A0004F903F902F900895089520915D02260F44
:1020B0003327331F21323105ECF420918102FC01DA
:1020C00090E080E0243069F082E00895A0915D0204
:1020D0002191AC01435C5D4FA40FB52FB11D2C9332
:1020E0000196861798F380915D02680F60935D02F8
:1020F00080E0089581E008959B01AC0160E074E206
:1021000084EF90E00E944A3520513109410951097C
:1021100056954795379527952093B80008951092C6
:10212000810281E0809383021092820261E082E169
:102130000E94900661E083E10E949006E9EBF0E0E6
:1021400080818E7F808380818D7F808388E48093EF
:10215000B80085E48093BC000895CF93DF9391E0AD
:1021600090933C028823B9F0C091B800D091BA0096
:102170008091BC008A7B8093BC0060E082E10E9479
:10218000900660E083E10E9490060E948F10D09339
:10219000BA00C093B800DF91CF910895E091B602E4
:1021A0008091B502E81730F4F0E0E95EFD4F8081E0
:1021B00090E008958FEF9FEF08959091B60280917F
:1021C000B5022FEF3FEF981748F4E92FF0E0E95EF2
:1021D000FD4F208130E09F5F9093B602C9010895C2
:1021E0008091B5029091B602891B990B0895CF9208
:1021F000DF92EF92FF920F931F93CF93DF937C01B7
:10220000CB018A0120916304222389F0EB016B0149
:10221000C40ED51ECC15DD0569F06991D701ED918D
:10222000FC910190F081E02DC7010995F3CF642F57
:102230000E945510C801DF91CF911F910F91FF901F
:10224000EF90DF90CF900895CF93DF931F92CDB79B
:10225000DEB76983209163042223F9F020916004A2
:10226000203258F021E030E0FC013383228390E0FB
:1022700080E00F90DF91CF91089580916104E82F65
:10228000F0E0E950FE4F998190838F5F8093610465
:102290008093600481E090E0ECCF61E0CE01019694
:1022A0000E945510F7CFCF92DF92EF92FF920F93DB
:1022B0001F93CF93DF93D091600481E0D13208F077
:1022C0009CC0C09162040E9452076B017C01809106
:1022D000810281116CC082E08093810281E0809351
:1022E00083028FEF809380021092A502D093A40204
:1022F000A7EFB1E0E4E8F2E080E0D8138DC01092DF
:10230000A6028091A602CC0FC82BC093A602809192
:102310008202813009F084C0109282020E9452072A
:102320006B017C018091A6028093BB0080913802F2
:1023300090913902A0913A02B0913B02892B8A2BED
:102340008B2BA1F00E9452070091380210913902A4
:1023500020913A0230913B026C197D098E099F0948
:10236000061717072807390708F442C08091BC00F8
:1023700083FDD8CF85EC8093BC000E9452076B018F
:102380007C0180918102823009F44CC080918002EE
:102390008F3F09F469C080918002803209F466C0E1
:1023A00080918002803309F463C084E026C080916C
:1023B000380290913902A0913A02B0913B02892BE8
:1023C0008A2B8B2B09F483CF0E945207009138028D
:1023D0001091390220913A0230913B026C197D092B
:1023E0008E099F09061717072807390708F06FCFCE
:1023F000809137020E94AD1085E010926104109226
:10240000600410926304DF91CF911F910F91FF90B0
:10241000EF90DF90CF9008959D9191938F5F6DCF56
:1024200085EEA9CF8091380290913902A0913A02AD
:10243000B0913B02892B8A2B8B2B09F4A2CF0E94EF
:102440005207009138021091390220913A023091DE
:102450003B026C197D098E099F090617170728078B
:10246000390708F08ECFC4CF80E0C7CF82E0C5CF58
:1024700083E0C3CFEF92FF920F931F93CF93DF932D
:102480007C01C62F8091B5049091B604009709F4A1
:1024900059C02091B90431E0309363042093620461
:1024A0001092610410926004DC01ED91FC910190A6
:1024B000F081E02D60E009958701EE24E394F12C92
:1024C000D1E0C1508091B5049091B604CF3F91F115
:1024D000B0E2EB16F104D8F00E9453118091B504DC
:1024E0009091B6042091B904D093630420936204C0
:1024F0001092610410926004DC01ED91FC91019056
:10250000F081E02D60E00995EE24E394F12C8091B8
:10251000B5049091B604F8016491DC01ED91FC9151
:102520000190F081E02D0995BFEFEB1AFB0A0F5FD8
:102530001F4FC7CFDF91CF911F910F91FF90EF9069
:102540000C945311E091C504F091C60490818091E0
:10255000CB048095892380838701C15008F438C05B
:10256000F80184912091B3043091B404232B29F015
:102570000E94350A0F5F1F4FF0CF28E030E040E89F
:10258000E091C104F091C2049091C904582F5423E2
:10259000D9F05081952B9083E091C304F091C4044D
:1025A00090815091CA04952B9083E091C304F091DF
:1025B000C40450819091CA049095952390834695C8
:1025C00021503109E9F6D6CF508190959523E3CF7C
:1025D000DF91CF911F910F91FF90EF9008951F937E
:1025E000CF93DF93EC018D8D9E8D009721F1162FF7
:1025F00029A131E0309363042093620410926104B6
:1026000010926004DC01ED91FC910190F081E02DCD
:1026100060E009958D8D9E8DDC01ED91FC9101901E
:10262000F081E02D612F09958D8D9E8DDF91CF91E9
:102630001F910C945311ADA5BEA59C918BA98095BB
:1026400089238C938B8D9C8D892B31F0862FDF9184
:10265000CF911F910C94350A28E030E080E8A9A5BD
:10266000BAA599A9462F4823C1F04C91942B9C936D
:10267000ABA5BCA59C914AA9942B9C93ABA5BCA5EA
:102680004C919AA9909594239C9386952150310959
:1026900031F7DF91CF911F9108954C91909594233C
:1026A000E6CFCF93C82F8091B5049091B604892BC3
:1026B00001F16091CD047091CE048091CF0490918E
:1026C000D0040E947C106C2F88E994E00E94EF12E5
:1026D0008091B5049091B604892B11F16091D104D9
:1026E0007091D2048091D3049091D404CF910C9432
:1026F0007C108091B3049091B404892B31F08091C7
:10270000D6049091D7040E943C0AE091C704F0914E
:10271000C80490818091CC04809589238083D3CF95
:10272000E091C704F091C80480819091CC04892B7A
:102730008083CF910895DF92EF92FF920F931F93C2
:10274000CF93DF938091B5049091B604892B09F45F
:102750008AC06091CD047091CE048091CF04909195
:10276000D0040E947C1065E087E59BE00E943A124D
:1027700060919C04615088E994E00E94EF122091DE
:102780009E0430919F04C901079697FD079623E0A8
:10279000959587952A95E1F720919C0430919D04A9
:1027A000829F8001839F100D929F100D1124C09174
:1027B000B704D091B8048091B5049091B6040C0F81
:1027C0001D1F009709F480C02091B90431E03093B7
:1027D0006304209362041092610410926004DC018F
:1027E000ED91FC910190F081E02D60E40995EE24DB
:1027F000E394F12CDD24D3948091B5049091B60438
:102800000C171D0709F446C0B0E2EB16F104D8F02E
:102810000E9453118091B5049091B6042091B9049F
:10282000D0926304209362041092610410926004B9
:10283000DC01ED91FC910190F081E02D60E40995BF
:10284000EE24E394F12C8091B5049091B604699143
:10285000DC01ED91FC910190F081E02D0995BFEF35
:10286000EB1AFB0AC9CF8091B3049091B404892B71
:1028700031F08091D6049091D7040E943C0AE091F7
:10288000C704F091C80490818091CC04809589237D
:10289000808369CF0E9453118091B5049091B60452
:1028A000892B09F452C06091D1047091D2048091B7
:1028B000D3049091D404DF91CF911F910F91FF9099
:1028C000EF90DF900C947C10E091C504F091C60469
:1028D00080819091CB04892B80830C171D07E1F236
:1028E00089912091B3043091B404232B19F00E94F4
:1028F000350AF3CF28E030E040E8E091C104F091E0
:10290000C2049091C904582F5423D9F05081952BBB
:102910009083E091C304F091C40490815091CA0463
:10292000952B9083E091C304F091C4045081909161
:10293000CA04909595239083469521503109E9F674
:10294000CCCF508190959523E3CFE091C704F091CF
:10295000C80480819091CC04892B8083DF91CF9132
:102960001F910F91FF90EF90DF9008951F93CF93E9
:10297000DF93EC01162F8D8D9E8D892BC9F06DA9EB
:102980007EA98FA998AD0E947C1066EA111167EAB2
:10299000CE010E94EF128D8D9E8D892BC9F069ADFD
:1029A0007AAD8BAD9CADDF91CF911F910C947C10D3
:1029B0008B8D9C8D892B21F08EAD9FAD0E943C0AA2
:1029C000EFA5F8A990818CA9809589238083DDCF1C
:1029D000EFA5F8A980819CA9892B8083DF91CF91F5
:1029E0001F91089590E080E00895DC0180E061503F
:1029F00090F09D919827E92FEF70F0E0E557FF4F99
:102A00002491E92FE295EF70F0E0E556FF4FE49155
:102A1000822F8E27ECCF0895DC012C911196ED9139
:102A2000FC91F8948181822B81839281322F3095A1
:102A30009323928387E090E00197F1F781818323CC
:102A4000818383E290E00197F1F790817894EFEC35
:102A5000F0E03197F1F7922381E009F480E00895E6
:102A6000FC0190810180F281E02D292F209560FFEB
:102A700014C0F8948281822382838181892B81838F
:102A8000A3E2B0E01197F1F78281982B92837894BA
:102A900087ED90E00197F1F70895F8948281822301
:102AA00082838181892B8183AFEFB0E01197F1F7A9
:102AB0008281982B928378948FE090E0EBCFDF9225
:102AC000EF92FF920F931F93CF93DF93EC01D62EDB
:102AD000E42E08E010E0FF24F39461E08D2D8F21B7
:102AE00009F460E0CE010E943015FF0C015011097D
:102AF000A1F7E11010C0F894E981FA8191818881F1
:102B0000809589238183E981FA81928188818095EA
:102B1000892382837894DF91CF911F910F91FF9049
:102B2000EF90DF900895EF92FF920F931F93CF9352
:102B3000DF938C017B0140E065E50E945F15E701B2
:102B400088E0E80EF11C699140E0C8010E945F1521
:102B5000CE15DF05C1F7DF91CF911F910F91FF9047
:102B6000EF900895FC0190810180F281E02DF894AE
:102B70008181292F20958223818378943DE743E04A
:102B800050E0315029F1DA011197F1F78081892362
:102B9000C1F3F8948281822382838181892B81838E
:102BA0007894ABE7B7E01197F1F7F894818182232D
:102BB0008183A3E1B1E01197F1F78081982381E04F
:102BC00009F080E07894E3E6F6E03197F1F70895B4
:102BD00080E008956F927F928F929F92AF92BF9202
:102BE000CF92DF92EF92FF920F931F93CF93DF93D9
:102BF0008C01EB0180917004909171040E94B215D8
:102C0000882309F43FC0B801809170049091710449
:102C10000E94931540E06EEB8091700490917104D6
:102C20000E945F157E016E0189E0C80ED11C8E01E5
:102C3000A0907004B090710488E0882E912C712CC3
:102C400066246394C5010E940C1581117628660CD8
:102C5000E1E08E1A9108B1F7F80171928F01CE165A
:102C6000DF0631F780917004909171040E94B215D3
:102C7000813041F4F70181917F01811105C0E01796
:102C8000F107C1F790E008C068E0CE010E94F5149A
:102C900091E028852813F6CF892FDF91CF911F91DE
:102CA0000F91FF90EF90DF90CF90BF90AF909F90EB
:102CB0008F907F906F900895CF92DF92EF92FF9266
:102CC00080917004909171040E94B21540E06CEC08
:102CD00080917004909171040E945F154091670487
:102CE00064E480917004909171040E945F1580915A
:102CF0006B04882309F1E0916A0480916C048823B5
:102D000001F18091670481111CC00E94AA076B0128
:102D10007C0180917004909171040E940C158130A7
:102D200059F00E94AA076C197D098E099F096E3E11
:102D300072408105910568F3FF90EF90DF90CF908E
:102D40000895E9508EEE92E0E33038F4F0E0EE0FB3
:102D5000FF1FE458FE4F808191816C01990FEE08AE
:102D6000FF0880916804882329F060E0809169045D
:102D70000E949006C701B6010E94770780916804FF
:102D80008823D1F261E080916904FF90EF90DF9099
:102D9000CF900C9490068091BB02882379F010921A
:102DA000BB020E94AA0760934D0470934E04809367
:102DB0004F04909350048FEA0C945113089580911E
:102DC000DA019091DB011092DB011092DA0110928E
:102DD0005D040895BF92CF92DF92EF92FF920F931E
:102DE0001F93CF93DF93EC01B62EC72E8D858111F3
:102DF00005C0CE010E94B21581110EC01B861D8632
:102E00001C8680E0DF91CF911F910F91FF90EF9092
:102E1000DF90CF90BF90089540E060EFCE010E9418
:102E20005F1501E0E12CD12C11E0CE010E940C15C0
:102E3000F82ECE010E940C1591E0F91218C08130D5
:102E400099F51134D8F2DB86D11002C081E08D876C
:102E50008B81882399F22396EB2DFC2DCF010896C8
:102E600029912193E817F907D9F781E0CBCFEE2D0F
:102E7000F0E0F8120FC08B851817A0F4DE01AE0F3A
:102E8000BF1F13968C91802379F4F12C193008F42C
:102E90001C87D12EEC0FFD1F8381902F90958923E5
:102EA00083830AC08113F1CFFE01EE0DF11D8381F2
:102EB000802B8383FF24F3946F2DCE010E94301565
:102EC0001F5F000F11F4E39401E087E08E1508F016
:102ED000ACCFB7CFFF920F931F93CF93DF938C01AB
:102EE000F62EE0917004F091710413861586148615
:102EF000128611861086178216821582148213821A
:102F0000C0E0B80180917004909171040E94EA16AB
:102F1000D82F882329F0FC1629F0CF5FFC1688F7FC
:102F2000D0E008C067E0C8010E94F514F80197815D
:102F30008913F3CF8D2FDF91CF911F910F91FF90C8
:102F400008950F931F93CF93DF93CDB7DEB76197AB
:102F50000FB6F894DEBF0FBECDBF8BE080936A043E
:102F600000E080916E04081708F0A7C0602FCE0122
:102F70000A960E946A178A85803109F47EC01091F2
:102F80006A04BE016F5F7F4FCE010A960E94EA1568
:102F9000882309F472C0E12F1D3008F470C0ECE002
:102FA000EA508FE1E33020F4F0E0EE57FE4F8081ED
:102FB0009D81981709F461C08D8380917004909170
:102FC00071040E94B215BE01665F7F4F809170044C
:102FD000909171040E94931540E06EE4809170041A
:102FE000909171040E945F1540E06B8180917004A4
:102FF000909171040E945F1540E06C818091700493
:10300000909171040E945F158A85803141F040E003
:103010006D8180917004909171040E945F15809180
:1030200070049091710420916D04222321F10E947B
:10303000B215882311F1BE01665F7F4F8091700445
:10304000909171040E9493154091670468E4809107
:103050007004909171040E945F1580916704811142
:1030600013C064E170E080E090E00E9477078091F7
:103070007004909171040E94B2150F5F72CF1930E5
:1030800008F08ECFE9E08CCF80916804882329F086
:1030900060E0809169040E94900664E170E080E045
:1030A00090E00E94770780916804882301F361E033
:1030B000809169040E949006DACF61960FB6F89469
:1030C000DEBF0FBECDBFDF91CF911F910F9108954D
:1030D000FC0101900020E9F73197AF01481B590B23
:1030E000BC0188E994E00C9411068F929F92AF92F4
:1030F000BF920F931F93CF93DF93CDB7DEB7A19706
:103100000FB6F894DEBF0FBECDBF19A2423008F44F
:103110004AE08E010F5D1F4F842E912CB12CA12C03
:10312000A50194010E944A35E62FB901CA01EA308F
:10313000F4F4E05DD801EE938D01232B242B252B95
:1031400079F790E080E0109719F0CD010E9468189F
:10315000A1960FB6F894DEBF0FBECDBFDF91CF9121
:103160001F910F91BF90AF909F908F900895E95C51
:10317000E1CFCF92DF92EF92FF92CF93DF9397FF51
:1031800019C06B017C018DE20E944C0DEC01662799
:103190007727CB016C197D098E099F094AE00E94AF
:1031A00075188C0F9D1FDF91CF91FF90EF90DF90EE
:1031B000CF9008954AE0DF91CF91FF90EF90DF909C
:1031C000CF900C947518BC01990F880B990B0C9437
:1031D000B918FF920F931F93CF93DF93EC01F62E54
:1031E0006AE070E00E94B4378B0182E0F11001C008
:1031F00081E08093AC048093AD04C73F8FEFD80784
:1032000020F086E790E00E94510DC8010E94E3186B
:10321000FF2029F081E08093AC048093AD0484E723
:1032200090E00E94510D26EF2003C001219F900DD8
:1032300011248C0F9D1F1816190644F02AE0209FB8
:10324000C001219F900D11248C1B9D0B0E94E3183F
:1032500087EFDF91CF911F910F91FF900C944C0D50
:10326000EF92FF920F931F93CF93DF9382E08093AF
:10327000AC048093AD0485E090E09093A504809326
:10328000A40481E090E09093A7048093A60480E8D2
:1032900090E00E94510D81E08093AC048093AD04D6
:1032A00088E390E09093A5048093A40485E190E0E6
:1032B0009093A7048093A60463EE88E994E00E94AB
:1032C0007A0C80915704909158040E94E3188091E1
:1032D000510481110FC092E0E92EF12C00E110E0C1
:1032E00020E830E050E040E070E060E088E994E001
:1032F0000E94600E80911401CAEFC80F863009F059
:1033000044C082E08093AC048093AD04D0E0CC0F45
:10331000DD1FFE01E858FE4F818190E0208130E002
:103320003093A5042093A4049093A7048093A6044B
:103330006091060170E090E080E04AE00E9475181C
:1033400080911401873019F582E08093AC0480935A
:10335000AD04CC58DE4F898190E0288130E0309375
:10336000A5042093A4049093A7048093A6046091DD
:10337000050170E090E080E04AE0DF91CF911F917D
:103380000F91FF90EF900C94751881E0BBCF81E016
:10339000DCCFCF93DF930E94510DEC0183EC91E0E1
:1033A0000E9468188C0F9D1FDF91CF910895CF93D5
:1033B000DF930E944C0DEC0183EC91E00E946818B1
:1033C0008C0F9D1FDF91CF910895EF92FF920F9385
:1033D0001F93CF93DF9311E01093AC041093AD04CF
:1033E0001092A5041092A4041092A7041092A604AF
:1033F0008BE00E94D7198CE00E94D71980EF0E94C1
:10340000D71983EE0E944C0DC9E0D0E0D093A504FB
:10341000C093A4041092A7041092A60460E08091C7
:103420004504909146040E94E918D093A504C093E6
:10343000A40487E090E09093A7048093A60460E042
:1034400080910F01909110010E94E918D093A5047A
:10345000C093A4048FE090E09093A7048093A60407
:103460008091F5019091F60160E091958195910927
:103470000E94E918D093A504C093A40487E190E0CA
:103480009093A7048093A604A0915704B091580488
:1034900024E630E00E94CE372FEF30E040E050E0ED
:1034A0000E941835CA01B9010E94B9188EE790E050
:1034B0000E94C919C0911401C250D0E080915104FA
:1034C000882329F1FE01EE0FFF1FE259FE4F808194
:1034D00090E09093A5048093A4049093A704809314
:1034E000A6041093AC041093AD0480E10E944C0D2F
:1034F00092E0E92EF12C00E210E02CE230E050E006
:1035000040E070E060E088E994E00E94600E809105
:103510001401823009F011C18093AC048093AD0492
:1035200086E08C9FF0018D9FF00D1124E45AFE4F30
:10353000818190E0208130E03093A5042093A404A1
:103540009093A7048093A60480910B0190910C01A5
:103550000E94E31880911401823029F481E0809365
:10356000AC048093AD0486E08C9F80018D9F100D8C
:103570001124045A1E4FF801838190E0228130E02B
:103580003093A5042093A4049093A7048093A604E9
:103590008CE790E00E94510DF801858190E0248134
:1035A00030E03093A5042093A4049093A704809363
:1035B000A6048091C2029091C302919581959109D0
:1035C0000E94E31880911401833029F482E08093F3
:1035D000AC048093AD0486E08C9FF0018D9FF00DCC
:1035E0001124E65BFE4F818190E0208130E0309332
:1035F000A5042093A4049093A7048093A60480912B
:10360000090190910A010E94E3188091140183300E
:1036100029F481E08093AC048093AD0486E08C9F14
:1036200080018D9F100D1124065B1E4FF8018381D0
:1036300090E0228130E03093A5042093A40490937D
:10364000A7048093A6048AE790E00E94510DF80138
:10365000858190E0248130E03093A5042093A40478
:103660009093A7048093A6048091C0029091C10218
:103670009195819591090E94E318809114018430FD
:1036800029F482E08093AC048093AD0486E08C9FA3
:10369000F0018D9FF00D1124E85CFE4F818190E0D8
:1036A000208130E03093A5042093A4049093A704D4
:1036B0008093A60480910701909108010E94E3186D
:1036C00080911401843029F481E08093AC048093CC
:1036D000AD0426E02C9FC0012D9F900D1124EC011C
:1036E000C85CDE4F8B8190E02A8130E03093A504E6
:1036F0002093A4049093A7048093A60488E790E005
:103700000E94510D8D8190E02C8130E03093A50412
:103710002093A4049093A7048093A6048091BE02F2
:103720009091BF02919581959109DF91CF911F9161
:103730000F91FF90EF900C94E31881E0EDCE209173
:103740009E0430919F04C901079697FD079623E0D8
:10375000959587952A95E1F720919C0430919D04D9
:10376000829FA001839F500D929F500D112470E005
:1037700060E08091B7049091B8040C9413390F93D2
:103780001F93CF93DF93CDB7DEB761970FB6F89451
:10379000DEBF0FBECDBF0E94AA070091B7021091F5
:1037A000B8022091B9023091BA02601B710B820BF2
:1037B000930B673771408105910508F457C160E0AC
:1037C000CE010A960E946A17811178C060E070E00D
:1037D0008EEF92EC6093F0017093F1018093F2010F
:1037E0009093F30110914C0420E030E04EEF52EC46
:1037F0000E94E835882309F4B3C01123F1F060E09A
:103800008DE00E9490060E94CB168091EF018111FD
:103810009EC0809111018093140110925104109266
:103820005C0410924C040E94AA0760934D047093AC
:103830004E0480934F04909350046091470470911C
:1038400048046115710501F1072E000C880B990BD6
:103850000E94973620E030E040E251E40E94ED35CE
:103860009B01AC016091F0017091F1018091F20136
:103870009091F3010E947C356093F0017093F10107
:103880008093F2019093F30181E08093F4010E9410
:10389000A1170E945C160E94AA076093B70270935A
:1038A000B8028093B9029093BA026091F0017091CE
:1038B000F1018091F2019091F301CAC0BE016F5FE6
:1038C0007F4FCE010A960E94EA15882309F47ECF25
:1038D0006A8170E0762F6627770F770F770F29813F
:1038E00048E0249F90011124262B372B8A858031B4
:1038F000E1F468856623C9F070E08F81AB01481B55
:103900005109CA019695982F8827979587950E9407
:10391000B437CB018097B90153E0660F771F5A95F2
:10392000E1F760789C01260F371F213854EE3507E8
:103930000CF44CCFB901330F880B990B0E949736CA
:1039400020E030E040E05CE30E94473743CF81E174
:103950008093140181E08093510480935C0461CFD3
:10396000111160C061E08DE00E9490060E94CB16AC
:103970000E949F1B84E08093AC048093AD0401E01F
:1039800010E01093A5040093A4041093A7040093DF
:10399000A60461E088E994E00E947A0C82E08093BA
:1039A000AC048093AD0486E290E09093A5048093EC
:1039B000A4041093A7040093A6048DE690E00E944F
:1039C000C91982E390E09093A5048093A40480E158
:1039D00090E09093A7048093A60488E690E00E946C
:1039E000C9190E949B136CED75E080E090E00E9485
:1039F000770780915C048823B1F181E08093EF0127
:103A00008091140181118093110181E080934C0415
:103A10000E94AA0760934D0470934E0480934F0454
:103A20009093500481E080935C0491E190931401A1
:103A3000809351040E94AA076093B7027093B80262
:103A40008093B9029093BA0260E07FEF8FE797E42A
:103A500061960FB6F894DEBF0FBECDBFDF91CF9158
:103A60001F910F9108951092EF01CACF1092F401A7
:103A70001CCF2F923F924F925F926F927F928F92C4
:103A80009F92AF92BF92CF92DF92EF92FF92CF932D
:103A9000DF93CDB7DEB72E970FB6F894DEBF0FBE1B
:103AA000CDBF0E94BF1B20E030E040E251E40E9405
:103AB00047370E945F366B0170934604609345045C
:103AC0008091F401882309F4F3C120910F01309112
:103AD00010012C193D093E872D873093F601209364
:103AE000F50160910B0170910C01072E000C880B01
:103AF000990B0E9497362AE037ED43E25CE30E947F
:103B000047374B015C014D855E85BA01550F880B27
:103B1000990B0E9497369B01AC01C501B4010E942C
:103B200047370E945F3669837A838B839C838981C0
:103B30009A819093C3028093C2026091C0027091F7
:103B4000C102072E000C880B990B0E9497362AE0C1
:103B500037ED43E25CE30E9447374B015C01809103
:103B6000090190910A01ED85FE85E89FB001E99F6A
:103B7000700DF89F700D1124072E000C880B990B07
:103B80000E9497369B01AC01C501B4010E947C35AF
:103B90000E945F366D837E838F8398872D813E815F
:103BA0003093C1022093C0024090EB015090EC0191
:103BB0006090ED017090EE014092E7015092E801B3
:103BC0006092E9017092EA010E94AA070E9495366C
:103BD0004B015C018092EB019092EC01A092ED010F
:103BE000B092EE018091E5019091E6016D857E85B0
:103BF000681B790B072E000C880B990B0E949736D7
:103C000069877A878B879C87A3019201C501B401DC
:103C10000E947B3520E030E04AE754E40E94ED3515
:103C20009B01AC0169857A858B859C850E94ED3569
:103C30004B015C016091070170910801072E000C97
:103C4000880B990B0E9497362AE037ED43E25CE33C
:103C50000E9447379B01AC01C501B4010E94473760
:103C60000E945F362B017093BF026093BE02609189
:103C70000D0170910E01072E000C880B990B0E940C
:103C8000973620E030E048EC52E40E94ED354B01DD
:103C90005C016D817E8149815A81640F751F640DBD
:103CA000751D072E000C880B990B0E9497369B01FF
:103CB000AC01C501B4010E94473790580E945F369D
:103CC0007093BD026093BC027093580460935704D4
:103CD0002091050130E02617370724F4309358046B
:103CE0002093570420910601809157049091580425
:103CF0002817190629F024F010925804109257043E
:103D00008D859E859093E6018093E5012091E401E5
:103D10002F5F2093E4010D2C000CEE08FF0860914A
:103D2000E0017091E1018091E2019091E3016C0D5D
:103D30007D1D8E1D9F1D70905C04E0915704F091D5
:103D40005804FA83E9838090DC019090DD01A09013
:103D5000DE01B090DF0130910401231708F47CC02C
:103D6000309144043F3708F061C03F5F3093440412
:103D7000C22ED12CF12CE12CA70196010E944A35CC
:103D800019011092E0011092E1011092E2011092EB
:103D9000E301772009F44DC080911501880E911C34
:103DA000A11CB11C8092DC019092DD01A092DE0189
:103DB000B092DF016091DC017091DD018091DE0144
:103DC0009091DF01A70196010E944A351092DC0113
:103DD0001092DD011092DE011092DF018091440407
:103DE00090E0FC01EE0FFF1FEC53FD4F318220826B
:103DF0008C539C4FFC0120831092E40189812E9604
:103E00000FB6F894DEBF0FBECDBFDF91CF91FF900C
:103E1000EF90DF90CF90BF90AF909F908F907F906A
:103E20006F905F904F903F902F90089510924404B0
:103E30009FCF29813A81C901330FAA0BBB0B880D93
:103E4000991DAA1DBB1D8093DC019093DD01A093F9
:103E5000DE01B093DF01AECF6093E0017093E1012A
:103E60008093E2019093E301772079F0809115012E
:103E7000880E911CA11CB11C8092DC019092DD0186
:103E8000A092DE01B092DF01B9CF29813A81C90148
:103E9000330FAA0BBB0B880D991DAA1DBB1D809368
:103EA000DC019093DD01A093DE01B093DF01A6CF8A
:103EB000A6CF0E940E3985ED8093BC008091380218
:103EC00090913902A0913A02B0913B020796A11D50
:103ED000B11D23E0B695A795979587952A95D1F7BB
:103EE0002091BC0024FD03C01092810208954091EE
:103EF00038025091390260913A0270913B02452B91
:103F0000462B472B69F30097A105B10541F02AE242
:103F10002A95F1F700C00197A109B109E1CF80917D
:103F200037020C94AD10CF93DF93EB010E94023562
:103F30008883CE01DF91CF9108950F931F93CF9384
:103F4000DF938C01EB010E9402358883C801019642
:103F50000E9402358983CE01DF91CF911F910F918D
:103F60000895CF93DF931F92CDB7DEB76FE071E076
:103F700090E080E00E949D1F6BE071E082E090E0A5
:103F80000E949D1F69E071E084E090E00E949D1F07
:103F900067E071E086E090E00E949D1F6DE071E0B7
:103FA00088E090E00E949D1F66E071E08AE090E06A
:103FB0000E94931F65E071E08BE090E00E94931FE8
:103FC00080915C048983BE016F5F7F4F8CE090E03D
:103FD0000E94931F65E171E08DE090E00E94931FC5
:103FE00067E474E08EE090E00E949D1F62E171E062
:103FF00080E190E00E949D1F6BE474E082E190E01C
:104000000E94931F6AE474E083E190E00E94931F92
:1040100084E190E00E9402358093490464E071E0FD
:1040200085E190E00E94931F64E171E08FEF93E0DF
:104030000E94931F6AE574E086E190E00E949D1F54
:104040000F90DF91CF910895FF920F931F93CF931D
:10405000DF93EC01F62E08811981C8010E94023518
:10406000F81621F06F2DC8010E940A35CE01DF91AC
:10407000CF911F910F91FF9008950F931F93CF93AE
:10408000DF9300D0CDB7DEB78B019A838983FB0124
:104090006081CE0101960E942420C8010F900F90EC
:1040A000DF91CF911F910F910895EF92FF920F939F
:1040B0001F93CF93DF9300D0CDB7DEB78C017B0188
:1040C0009A838983FB016081CE0101960E9424209E
:1040D0000F5F1F4F1A830983F7016181CE0101969B
:1040E0000E942420C7010F900F90DF91CF911F9164
:1040F0000F91FF90EF9008951F920F920FB60F92BD
:1041000011242F933F938F939F93AF93BF938091ED
:10411000A8029091A902A091AA02B091AB0230919D
:10412000A70223E0230F2D3758F50196A11DB11DDD
:104130002093A7028093A8029093A902A093AA02B9
:10414000B093AB028091AC029091AD02A091AE020F
:10415000B091AF020196A11DB11D8093AC02909366
:10416000AD02A093AE02B093AF02BF91AF919F9109
:104170008F913F912F910F900FBE0F901F90189528
:1041800026E8230F0296A11DB11DD2CF1F920F92D8
:104190000FB60F9211242F933F934F935F936F931A
:1041A0007F938F939F93AF93BF93EF93FF93E09190
:1041B0000201F09103010995FF91EF91BF91AF9139
:1041C0009F918F917F916F915F914F913F912F912F
:1041D0000F900FBE0F901F9018951F920F920FB661
:1041E0000F9211242F933F934F935F936F937F937D
:1041F0008F939F93AF93BF93EF93FF93E091000151
:10420000F09101010995FF91EF91BF91AF919F91BD
:104210008F917F916F915F914F913F912F910F906F
:104220000FBE0F901F9018951F920F920FB60F920E
:1042300011242F933F934F935F936F937F938F93AB
:104240009F93AF93BF93EF93FF938091B900887FC3
:10425000803609F44AC0F0F5883209F4A7C018F591
:10426000803109F49BC0B8F4882309F4F9C0883080
:1042700009F494C0FF91EF91BF91AF919F918F91FD
:104280007F916F915F914F913F912F910F900FBE52
:104290000F901F901895883109F488C0803251F72B
:1042A0008093800214C0803409F49DC040F48033B0
:1042B000B9F38833F9F68093800285ECB0C080357D
:1042C00009F485C0883509F496C0883499F60E94AF
:1042D0005B1FD0CF883909F48CC038F5883729F0B6
:1042E00050F4883611F0803729F683E080938102FC
:1042F00010927F0257C0883809F47BC0803919F0CA
:10430000803809F0B7CF80917F02803208F071C009
:10431000E0917F0281E08E0F80937F028091BB004D
:10432000F0E0E15AFD4F80833DC0803B39F0E0F47E
:10433000803A09F479C0883A09F09CCF84E08093F0
:10434000810210925E0210925D02E091B302F09140
:10435000B402099580915D0281110FC081E08093C4
:104360005D0210923D0209C0803C09F4A6CF883C52
:1043700009F4A3CF883B09F07DCFE0915E0281E094
:104380008E0F80935E02F0E0E35CFD4F80818093AE
:10439000BB0090915E0280915D0229C08091A602CF
:1043A0008093BB0085EC8093BC0064CF9091A50204
:1043B0008091A402981758F5E091A50281E08E0F34
:1043C0008093A502F0E0EC57FD4F8081E9CFE091AA
:1043D000A50281E08E0F8093A5028091BB00F0E0E2
:1043E000EC57FD4F80839091A5028091A40298170D
:1043F000C8F285E8D8CFE091A50281E08E0F8093C6
:10440000A5028091BB00F0E0EC57FD4F80838091C6
:10441000830281115CCF81E08093820284EA8093E1
:10442000BC001092810226CF85EC8093BC001092D4
:10443000810280917F02803230F4E0917F02F0E0CF
:10444000E15AFD4F108260917F0270E0E091B1026D
:10445000F091B2028FE592E0099510927F020ACFA7
:104460001092800234CF1F920F920FB60F92112438
:10447000CF92DF92EF92FF922F933F934F935F93F0
:104480006F937F938F939F93AF93BF93CF93DF935C
:10449000EF93FF93809166040E946706EC01809180
:1044A00065040E946706909164049F70CC0FDD1F25
:1044B000C82B24E0929FC0011124845E9E4FC80F38
:1044C000D92FD11DC881C0936404C073C03119F0C5
:1044D000C03209F045C00E94AA076B017C0180919F
:1044E000D6019091D701A091D801B091D901A7012F
:1044F0009601281B390B4A0B5B0B62E370E080E0EE
:1045000090E00E944A352F5F80914A044FEF5FEFA1
:10451000882311F041E050E0C031C9F56091DA0123
:104520007091DB01249FC001259F900D1124860FFF
:10453000971F9093DB018093DA01C092D601D0924D
:10454000D701E092D801F092D90181E080935D0417
:10455000C0924D04D0924E04E0924F04F092500469
:10456000FF91EF91DF91CF91BF91AF919F918F918B
:104570007F916F915F914F913F912F91FF90EF90BD
:10458000DF90CF900F900FBE0F901F901895C03204
:10459000A1F68091DA019091DB01249FB001259F63
:1045A000700D1124861B970BC4CFCF93DF93ACE81B
:1045B000B4E013961C921E92129748EE53E060E00E
:1045C00070E014964D935D936D937C93179789E8F3
:1045D00091E011969C938E93E8E9F4E013821282A5
:1045E00020E830E03583248380E290E0978386835F
:1045F0003187208793878287168A158614861786C7
:104600001686C1E0C58BC48B8FEF9FEF938B828B97
:10461000918B808BC78B108E128E118E8BE991E05F
:1046200091838083148E138EB68FA58F10A2178E60
:104630008FEF84A385A386A387A380A780E89AE150
:10464000A6E0B0E085AB96ABA7ABB0AF80EA96E84A
:10465000A1E0B0E081AF92AFA3AFB4AF80E586AF89
:1046600017AE60E087E00E94BE06E5E9FBE0E4915A
:10467000AEE7B4E0EC93E1E8FBE0E491F0E0EE0FAC
:10468000FF1FE059F44F8591949112969C938E935D
:1046900011971B961C921B971D961C921D971C969A
:1046A0001C921C971A961C921A9719961C9219978D
:1046B00018961C92189717961C92179716961C928C
:1046C000169715961C92159714961C92149713968C
:1046D0001C921397E7E6F4E0168A158A1182B287D6
:1046E000A18717821086108289E08383C483C583E3
:1046F000C683C4E6D4E080E1898381E18A8360E0F7
:1047000080E10E94BE0660E08A810E94BE0661E0F0
:1047100089810E94900661E08A810E949006188239
:10472000DF91CF910895CF93DF93CDB7DEB7679731
:104730000FB6F894DEBF0FBECDBF789484B582600B
:1047400084BD84B5816084BD85B5826085BD85B535
:10475000816085BD80916E00816080936E001092B3
:10476000810080918100826080938100809181002E
:1047700081608093810080918000816080938000BF
:104780008091B10084608093B1008091B00081601D
:104790008093B00080917A00846080937A00809149
:1047A0007A00826080937A0080917A0081608093A1
:1047B0007A0080917A00806880937A001092C1001C
:1047C00061E08BE00E94BE068FEF90E00E94FA0647
:1047D00062E083E00E94BE0686EB97E090930301BF
:1047E0008093020180916900837F886080936900D3
:1047F000E99A8091B7049091B804892B09F0A4C07C
:1048000020919E0430919F04C901079697FD079659
:10481000B3E095958795BA95E1F720919C04309186
:104820009D04AC01429FC001439F900D529F900D8B
:1048300011240E94E9379093B8048093B704892B20
:1048400009F082C081E080935F04E0917004F091F0
:1048500071041386158614861286118610861782B7
:10486000168215821482138210926E0410926F04C5
:1048700011E0BE01665F7F4F8091700490917104DA
:104880000E94EA16882309F475C267E0CE010A96F1
:104890000E94F51499898913ECCF80916E048F5F83
:1048A00080936E048A85883231F008F048C28031E6
:1048B00011F08232F1F680916F048F5F80936F0464
:1048C00080916704811128C08091700490917104D7
:1048D0000E94B215BE01665F7F4F80917004909177
:1048E00071040E94931540E064EB809170049091F4
:1048F00071040E945F1580917004909171040E9470
:104900000C15082F80917004909171040E94B215CB
:10491000011102C0109367048A85803109F41BC21B
:10492000BE016F5F7F4FCE010A960E94EA15882371
:1049300049F08D818F3309F410C208F007C28F311E
:1049400009F414C280E00AC20E949F1B20919E04B9
:1049500030919F0480919C0490919D04B901213273
:1049600031050CF4E3C06054710977FF02C06F5F3A
:104970007F4F759567958255910997FD019600E4E3
:1049800010E022E530E041EC57E0959587950E94D4
:10499000460F82E08093BA048091B5049091B604EA
:1049A000892B09F4D6C08CE38093B9041092B60227
:1049B0001092B50210926104109260040E948F1050
:1049C0008FE096E09093B4028093B30280E196E08A
:1049D0009093B2028093B1028091C00487FD1EC003
:1049E00061E00E94BE0661E08091C0040E949006D2
:1049F00061E070E080E090E00E94770760E08091E5
:104A0000C0040E9490066AE070E080E090E00E949E
:104A1000770761E08091C0040E9490068091B50400
:104A20009091B604892B09F453C16091CD04709123
:104A3000CE048091CF049091D0040E947C1064E059
:104A400083ED95E00E943A1260919E04615088E9DE
:104A500094E00E94EF1264E08FEC95E00E943A121D
:104A60008091BA0460E1813009F064E188E994E062
:104A70000E94EF1264E08BEC95E00E943A128FE8FE
:104A80008093D50480919C0490919D048038910579
:104A900009F037C180919E0490919F048034910564
:104AA00009F03FC18091BA04813009F028C18FE933
:104AB0008093D50412E16AED88E994E00E94EF1238
:104AC000612F88E994E00E94EF1261E888E994E0A0
:104AD0000E94EF126091D50488E994E00E94EF12E1
:104AE00069ED88E994E00E94EF128091BA0462E2D5
:104AF000813009F061EF88E994E00E94EF1266E0EE
:104B000085EC95E00E943A128091B5049091B6042C
:104B1000892B09F40AC16091D1047091D20480916B
:104B2000D3049091D4040E947C108FCE60527109FE
:104B300077FF02C06F5F7F4F759567958357910927
:104B400097FD019600E210E023E730E041EE55E0EA
:104B50001CCF61E08091BE040E94BE0661E080919E
:104B6000BF040E94BE068091BE04082E000C990B63
:104B7000FC01E658F44FE491F0E0EE0FFF1FE9521C
:104B8000FA4F259134913093C6042093C504FC015B
:104B9000E257F44FE491E093CB048091BF04082ED8
:104BA000000C990BFC01E658F44FE491F0E0EE0F95
:104BB000FF1FE952FA4FA591B491B093C804A09396
:104BC000C704FC01E257F44FE491E093CC048C91CC
:104BD000E82BEC938091B3049091B404892B09F4F1
:104BE00034C01FB7F8948091B002811127C0E4E867
:104BF000FBE08491E8E9FBE09491E82FF0E0EE0F10
:104C0000FF1FE554FA4FA591B491EC91E92321F4EB
:104C100061E08AE00E94900661E08AE00E94BE06A0
:104C20008CB580618CBD8CB580648CBD61E08DE0FD
:104C30000E94BE0661E08BE00E94BE068091B00239
:104C40008F5F8093B0021FBFC7CE61E08091BC042C
:104C50000E94BE0661E08091BD040E94BE06809164
:104C6000BC04082E000C990BFC01E658F44FE491AB
:104C7000F0E0EE0FFF1FE952FA4F25913491309387
:104C8000C2042093C104FC01E257F44FE491E09385
:104C9000C9048091BD04082E000C990BFC01E65854
:104CA000F44FE491F0E0EE0FFF1FE952FA4FA591A7
:104CB000B491B093C404A093C304FC01E257F44F31
:104CC000E491E093CA048C91E095E823EC9384CEC0
:104CD0008091B3049091B404892B31F08091D60473
:104CE0009091D7040E943C0AE091C704F091C80457
:104CF00090818091CC04809589238083A0CE8FEC15
:104D0000D7CE8036910569F480919E0490919F04DE
:104D1000409739F48091BA04813029F480E180937E
:104D2000D50412E0C8CE8FEAFACFE091C704F09123
:104D3000C80480819091CC04892B808386CD8B33ED
:104D400009F4B9CD823409F094CDB5CD8F3581F019
:104D50008F3709F0F7CD8CE001C08AE090916A04AA
:104D6000981708F086CD80936A0483CD89E0F6CF4A
:104D70008BE0F4CF0E94AA076093B7027093B80249
:104D80008093B9029093BA020E94A1170E945C1608
:104D900067E771E080E090E00E9477070E94BF1B08
:104DA00020E030E040E251E40E9447370E945F3645
:104DB0009B017093460460934504E4ECF2E080E0CC
:104DC0008F5F813819F021933193FACFE4ECF3E04F
:104DD00080E08F5F813811F01192FBCF1092440474
:104DE00010926B040E94B11F80914A04882329F01D
:104DF00062E088E994E00E94400A1982BE016F5F78
:104E00007F4F8FEF93E00E94931F89818093110160
:104E10008093140180915F04811169C00E949F1BDF
:104E20001092AF0411E01093AC041093AD0482E033
:104E300090E09093AB048093AA049093A90480938C
:104E4000A8048EE390E09093A5048093A4041092AC
:104E5000A7041092A6048CE89AE00E94C91982E087
:104E60008093AC048093AD0485E090E09093A5041A
:104E70008093A40488E090E09093A7048093A60414
:104E800081E89AE00E94510D1093AC041093AD0498
:104E90001092A5041092A40489E190E09093A704D5
:104EA0008093A60486EC91E00E94681883EC91E060
:104EB0000E9468180E949B136CE271E080E090E011
:104EC0000E947707B2E0EB2EF12C01E110E020E820
:104ED00030E047E050E070E060E088E994E00E9454
:104EE000600E68EE73E080E090E00E9477078091AA
:104EF000680082608093680080916C008C60809371
:104F00006C000E94AA0760934D0470934E04809336
:104F10004F049093500466246394712C80915F0435
:104F200081110C94C33480915C048111F6C00E94FD
:104F3000391D80915A0490915B04892B71F1009185
:104F4000570410915804809159048111C1C0011572
:104F5000110589F480915604882369F081E08093DB
:104F600059040E94AA0760935204709353048093DB
:104F70005404909355040093560480915904882357
:104F800061F080911401813021F4809151048111EC
:104F900004C01092580410925704809157049091C5
:104FA0005804AFEFB0E0A81BB90BCD010E94FA0680
:104FB0000E94AA0700914D0410914E0420914F04C5
:104FC000309150044B015C01801A910AA20AB30A85
:104FD0002091120130911301A8EEB3E00E946C35CC
:104FE000681579058A059B05C0F4909114019923F1
:104FF000A1F080914C04811102C090931101909115
:105000004B04992341F0811106C064E171E08FEFF8
:1050100093E00E943D201092140180915E04882349
:1050200071F08091140181110AC080915C0481119A
:105030008CC0809111018093140110925E048091C4
:10504000140181110E94CB1680915E048823D1F057
:1050500080915104811116C081E0809351048091A8
:1050600014018C3009F482C08D3009F475C08B3086
:1050700039F480914A04882319F082E08093510426
:1050800010925E0480915E04882309F484C08091AC
:105090005104882309F47FC0E0911401E150E1310B
:1050A00008F075C0F0E0E95AF74D0C94C837BD28F8
:1050B000162920292A290529342940294A2956292F
:1050C000672988297129A129352AC728C7283B2A99
:1050D0000115110509F44FCF0E94AA074B015C018D
:1050E00020915A0430915B04A8EEB3E00E946C3525
:1050F000C0905204D0905304E0905404F0905504B2
:105100006C0D7D1D8E1D9F1D681579058A059B05FB
:1051100008F031CF109259042ECF809114018823CA
:1051200019F081E18093140180915104811103C031
:1051300081E0809351040E94391D809115012FEF69
:1051400030E0281B3109C90131CF81E1809314017E
:1051500081E08093510471CF1982BE016F5F7F4F50
:1051600084E190E00E94931F898185CF1982BE015E
:105170006F5F7F4F82E190E0F5CF809149048823F3
:1051800031F06FE071E090E080E00E9455201092D5
:10519000510410925E0480915D048823C9F08091CF
:1051A0005104811115C00E94DF16E0911401EE2315
:1051B00009F479C166277727681B790B21E130E074
:1051C00041E050E08E2F90E00E94FD058093140195
:1051D000E0911401E23110F00C948134F0E0ED50D4
:1051E000F74D0C94C837562A762A882DA62DC02D47
:1051F000672BDA2D032E332E972E792F4D30E82F83
:10520000CD3012315731AC32FB33809149048823C1
:1052100009F4BDCF80910D0190910E019A8389838D
:10522000BE016F5F7F4F88E090E0AFCF809149046F
:10523000882309F4ACCF6BE071E082E090E0A5CF69
:1052400080914904882309F4A2CF69E071E084E0E9
:1052500090E09BCF80914904882309F498CF67E0C0
:1052600071E086E090E091CF80914904882309F4B1
:105270008ECF66E071E08AE090E00E943D2087CF0B
:1052800080914904882309F482CF65E071E08BE0C6
:1052900090E0F3CF80914904882309F478CF6AE540
:1052A00074E086E190E00E94552071CF809149041E
:1052B000882309F46CCF80914704909148049A8325
:1052C0008983BE016F5F7F4F8EE090E05ECF80915B
:1052D0004904882309F45BCF62E171E080E190E04A
:1052E000E2CF813041F410924B046BE474E082E130
:1052F00090E00E943D2080915104823009F047CF18
:1053000081E080934B046BE474E082E190E0B5CFE0
:10531000813041F410924A046AE474E083E190E041
:105320000E943D2080915104823009F030CF81E00D
:1053300080934A046AE474E083E190E00E943D2097
:1053400026CF823009F080C081E0809349048091AB
:105350000F01909110019A838983BE016F5F7F4F87
:1053600090E080E00E9455206BE071E082E090E0E8
:105370000E94552069E071E084E090E00E94552091
:1053800067E071E086E090E00E94552080910D0179
:1053900090910E019A838983BE016F5F7F4F88E0F1
:1053A00090E00E94552066E071E08AE090E00E9463
:1053B0003D2065E071E08BE090E00E943D2080910F
:1053C0005C048983BE016F5F7F4F8CE090E00E9498
:1053D0003D2065E171E08DE090E00E943D208091EC
:1053E0004704909148049A838983BE016F5F7F4F81
:1053F0008EE090E00E94552062E171E080E190E053
:105400000E9455206BE474E082E190E00E943D2010
:105410006AE474E083E190E00E943D2084E190E042
:105420009A83898360914904CE0101960E942420C9
:1054300064E071E085E190E00E943D206AE574E05F
:1054400086E190E00E94552080915104813009F05E
:105450009ECE1092490484E190E09A83898360E0B3
:10546000CE0101960E94242092CE823009F08FCE88
:105470000E94B11F8CCE80914904811105C080919A
:105480005F04882309F483CE80915C048983BE0184
:105490006F5F7F4F8CE090E00E943D2065E171E0FE
:1054A0008DE090E0EACE8091110190CE8091BB0218
:1054B000811106C081E08093BB028EEA0E945113E5
:1054C00080915E04882331F0809111018093140152
:1054D00010925E0480915D04882309F40DC30E943C
:1054E000DF16809111018093140106C380915D0441
:1054F000882311F1809151048823F1F00E94DF1676
:1055000025E0289FB001299F700D112420EB34E085
:1055100046E05FEF80910F01909110010E94FD0520
:105520009C0165E070E00E94B437892B09F0AAC0A5
:105530003093100120930F010E949F1B7092A504CD
:105540006092A4047092A7046092A60411E01093E4
:10555000AC041093AD0463EE88E994E00E947A0CE9
:1055600082E08093AC048093AD04A0915704B09185
:10557000580424E630E00E94CE372FEF30E040E0C0
:1055800050E00E941835CA01B9010E94B91888E993
:105590009AE00E94510D7092A5046092A404F1E17A
:1055A000CF2ED12CD092A704C092A6041093AC04A5
:1055B0001093AD046BE088E994E00E947A0C61E0FE
:1055C00080914504909146040E94E91881E490E09E
:1055D0009093A5048093A404D092A704C092A6043B
:1055E0006CE088E994E00E947A0C61E080910F0100
:1055F000909110010E94E91880915104882309F4C8
:1056000044C0A0910F01B0911001A93532E0B30759
:1056100014F0A8E5B2E0B7FF02C0B0E0A0E02FE7C9
:1056200030E00E94CE3728E532E040E050E00E94B2
:10563000183560E870E0621B730BE2E0EE2EF12C8F
:1056400000E110E020E830E040E150E088E994E03B
:105650000E94600EA0915704B09158042FE730E0EB
:105660000E94CE372FEF30E040E050E00E94183526
:1056700062E0E62EF12C00E110E050E040E070E046
:1056800060E034C22150310953CFA0914504B0915C
:105690004604A93542E0B40714F0A8E5B2E0B7FF2C
:1056A00002C0B0E0A0E02FE730E00E94CE3728E54E
:1056B00032E040E050E00E94183572E0E72EF12C15
:1056C00000E110E040E150E070E060E0BFCF809189
:1056D0005D04882309F474C080915104882309F47F
:1056E0006FC00E94DF169C0180910D0190910E0108
:1056F000883C91058CF4820F931F1816190614F03C
:1057000081E090E0813157E2950714F080E197E263
:1057100090930E0180930D0140910D0150910E0167
:10572000CA01885C91098032934008F56AE0629F63
:10573000C001639F900D1124840F951F1816190640
:1057400014F081E090E08131A7E29A0714F080E143
:1057500097E26AE070E00E94B4374AE0469FC001D9
:10576000479F900D112490930E0180930D0140915D
:105770000D0150910E01483EB3E05B070CF164E669
:10578000629FC001639F900D1124840F951F18160E
:10579000190614F081E090E0813127E2920714F0BD
:1057A00080E197E264E670E00E94B43724E6269F29
:1057B000C001279F900D112490930E0180930D013D
:1057C00000910D0110910E01C80164E670E00E9485
:1057D000B4375B012CE926036001279FD00C11240C
:1057E0000C0D1D1D0E949F1B1092A5041092A40475
:1057F0001092A7041092A60481E08093AC048093D9
:10580000AD048091C2029091C30291958195910956
:105810000E94E3188091C0029091C10218161906E7
:1058200024F086EB9AE00E94510D8091C002909185
:10583000C1029195819591090E94E3188091BE0261
:105840009091BF021816190624F084EB9AE00E948A
:10585000510D8091BE029091BF0291958195910961
:105860000E94E31880EB9AE00E94510D2091BE0245
:105870003091BF028091C0029091C102820F931FAC
:10588000820F931F9195819591090E94E31883ECF3
:1058900091E00E9468188CEA9AE00E94510DC501BF
:1058A0000E94E3188AEA9AE00E94510D0A3011051D
:1058B00024F488EA9AE00E94510D80910D019091A4
:1058C0000E018C0D9D1D0E94E31885EA9AE00E944E
:1058D000510D8091BC029091BD020E94E31881EAB3
:1058E0009AE00E94510D80915704909158040E94B3
:1058F000E31880910D0190910E01883E33E09307EB
:105900000CF402C1803197420CF000C18CE090E0B1
:105910009093A5048093A40481E190E09093A70460
:105920008093A60482E08093AC048093AD048EE95A
:105930009AE00E94510DC5010E94E3188CE99AE09B
:105940000E94510D0A30110524F48AE99AE00E9460
:10595000510D80910D0190910E018C0D9D1D0E94A5
:10596000E31880915104882309F4C4C080910D018B
:1059700090910E018436910579F452E0E52EF12CD8
:1059800000E110E020E830E040E150E070E060E04D
:1059900088E994E00E94600E60910D0170910E0103
:1059A000CB01855691098438934010F5072E000CE1
:1059B000880B990B645671098109910926E0660FDD
:1059C000771F881F991F2A95D1F724E833E040E01C
:1059D00050E00E94183542E0E42EF12C00E110E086
:1059E00040E150E060E470E088E994E00E94600EDD
:1059F00060910D0170910E01693E83E0780714F10A
:105A0000072E000C880B990B685E73408109910981
:105A100016E0660F771F881F991F1A95D1F728E2A5
:105A200033E240E050E00E94183502E0E02EF12C15
:105A300000E110E040E150E060E470E088E994E0CB
:105A40000E94600E60910D0170910E01CB010A97CA
:105A50008A35910520F5072E000C880B990B6456AA
:105A6000710981099109A6E0660F771F881F991FA8
:105A7000AA95D1F726EA3FEF4FEF5FEF0E94183566
:105A800060E470E0621B730BB2E0EB2EF12C00E1DE
:105A900010E040E150E088E994E00E94600E6091DF
:105AA0000D0170910E016A30710524F5072E000C6E
:105AB000880B990B6A50710981099109F6E0660F0C
:105AC000771F881F991FFA95D1F727EF3FEF4FEF08
:105AD0005FEF0E94183560E470E0621B730BE2E038
