:100000000C94DF050C9445220C941E220C940706D8
:100010000C948B230C9407060C9407060C9407068B
:100020000C9407060C9407060C9407060C9407061C
:100030000C9407060C9407060C9407060C9407060C
:100040000C94D4210C9407060C9407060C94070614
:100050000C9407060C9407060C9407060C940706EC
:100060000C946C220C9407064641494C0053454EB3
:10007000534F52002E002D0044004900500025002F
:100080004D494E202E2E204D41580073006D0074B6
:10009000696D6500706572696F6400444553542052
:1000A00000005EBCE2613FDD83C29C7E20A3FD1F99
:1000B00041009D23BE46DB65F88C11AF32CA57E97B
:1000C0007400000000003E5B4F5B3E3E6B4F6B3E9A
:1000D0001C3E7C3E1C183C7E3C181C577D571C1C4B
:1000E0005E7F5E1C00183C1800FFE7C3E7FF0018A6
:1000F000241800FFE7DBE7FF30483A060E2629798F
:100100002926407F050507407F05253F5A3CE73CEF
:100110005A7F3E1C1C08081C1C3E7F14227F2214A0
:100120005F5F005F5F06097F017F006689956A60F7
:100130006060606094A2FFA29408047E040810200E
:100140007E201008082A1C08081C2A08081E101007
:1001500010100C1E0C1E0C30383E3830060E3E0EB1
:1001600006000000000000005F000000070007001C
:10017000147F147F14242A7F2A1223130864623602
:10018000495620500008070300001C22410000418E
:10019000221C002A1C7F1C2A08083E0808008070C8
:1001A00030000808080808000060600020100804FB
:1001B000023E5149453E00427F400072494949464E
:1001C0002141494D331814127F1027454545393CCC
:1001D0004A494931412111090736494949364649B9
:1001E00049291E00001400000040340000000814DB
:1001F0002241141414141400412214080201590954
:10020000063E415D594E7C1211127C7F49494936A8
:100210003E414141227F4141413E7F494949417F21
:10022000090909013E414151737F0808087F0041D7
:100230007F41002040413F017F081422417F404020
:1002400040407F021C027F7F0408107F3E414141F5
:100250003E7F090909063E4151215E7F0919294661
:10026000264949493203017F01033F4040403F1F77
:100270002040201F3F4038403F63140814630304AC
:100280007804036159494D43007F4141410204080C
:100290001020004141417F040201020440404040DF
:1002A00040000307080020545478407F2844443815
:1002B0003844444428384444287F3854545418005F
:1002C000087E090218A4A49C787F080404780044DE
:1002D0007D40002040403D007F1028440000417FC9
:1002E00040007C047804787C080404783844444452
:1002F00038FC1824241818242418FC7C080404084A
:10030000485454542404043F44243C4040207C1C62
:100310002040201C3C4030403C44281028444C9055
:1003200090907C4464544C440008364100000077AF
:100330000000004136080002010204023C26232688
:100340003C1EA1A161123A4040207A3854545559BC
:1003500021555579412254547842215554784020F2
:10036000545579400C1E527212395555555939540D
:1003700054545939555454580000457C41000245A5
:100380007D420001457C407D1211127DF028252818
:10039000F07C545545002054547C547C0A097F4914
:1003A00032494949323A4444443A324A4848303A58
:1003B0004141217A3A42402078009DA0A07D3D42F3
:1003C00042423D3D4040403D3C24FF2424487E497C
:1003D00043662B2FFC2F2BFF0929F620C0887E09AE
:1003E0000320545479410000447D413048484A324A
:1003F000384040227A007A0A0A727D0D19317D2632
:1004000029292F28262929292630484D4020380817
:1004100008080808080808382F10C8ACBA2F102898
:1004200034FA00007B000008142A142222142A1433
:10043000085500550055AA55AA55AAFF55FF55FF66
:10044000000000FF00101010FF00141414FF001033
:1004500010FF00FF1010F010F0141414FC0014141E
:10046000F700FF0000FF00FF1414F404FC1414173D
:10047000101F10101F101F1414141F00101010F064
:10048000000000001F101010101F10101010F010AE
:10049000000000FF101010101010101010FF1000BE
:1004A0000000FF140000FF00FF00001F10170000F5
:1004B000FC04F414141710171414F404F40000FFCF
:1004C00000F714141414141414F700F71414141768
:1004D0001410101F101F141414F4141010F010F046
:1004E00000001F101F0000001F14000000FC14007B
:1004F00000F010F01010FF10FF141414FF1410106F
:10050000101F00000000F010FFFFFFFFFFF0F0F0F1
:10051000F0F0FFFFFF0000000000FFFF0F0F0F0FC4
:100520000F3844443844FC4A4A4A347E02020606E4
:10053000027E027E0263554941633844443C0440D4
:100540007E201E2006027E020299A5E7A5991C2A9C
:10055000492A1C4C7201724C304A4D4D303048785B
:100560004830BC625A463D3E494949007E0101017E
:100570007E2A2A2A2A2A44445F444440514A44405D
:1005800040444A51400000FF0103E080FF000008A2
:10059000086B6B083612362436060F090F0600006A
:1005A00018180000001010003040FF0101001F016A
:1005B000011E00191D1712003C3C3C3C00000000CD
:1005C00000000103070F1F3F7F0080C0E0F0F8FC30
:1005D000FE00000008000201000003040700000004
:1005E000000000000000000000240027002A00DBBB
:1005F00040A4A62EAF2000A1C8D300408DAED58068
:10060000A800000000250028002B0000006000006A
:10061000000000000000000000000000E0000000FA
:100620000000000000000000000001E000000000E9
:1006300000000000000000000001F00000000000C9
:10064000000000000000000003F0000000000000B7
:100650000000000000000007F000000000000000A3
:1006600000000000000007F800000000000000008B
:1006700000000000000FF800000003C0007E000032
:1006800001E0007F0FF800000003C000FE00000141
:10069000E000FFEFF800000003C000FE000001E0F2
:1006A00000FFFFF800000003C000F00000000F0092
:1006B0007FFE7FC0000003C000F00000000F003F7D
:1006C000FE7FF83FF1FBCFFCFEF3BC3DEFE01FFEE9
:1006D0007FFF7FFBFFDFFEFEFFBC3DEFE01FC6FF9D
:1006E000FF7FFBFFDFFEFEFFBC3DEFE00FE3C7FE39
:1006F000787BC3DE1EF0FFBC3DEF0007FF87FC7870
:100700007BC3DE1EF0F83C3DEF0001FFFFF0007BF5
:10071000C3C01EF0F03C3DEF0001F37FE03FFBC3A0
:10072000CFFEF0F03C3DEF0003E33F807FFBC3DFF3
:10073000FEF0F03C3DEF0007E73C00787BC3DE1E97
:10074000F0F03C3DEF0007FFBE00787BC3DE1EF0FB
:10075000F03C3DEF0007FFFE00787BC3DE1EF0F0AB
:100760003C3DEF000FFFFE007FFBFFDFFEF0F03FA0
:10077000FDEFE00FFFFF007FFBFFDFFEF0F03FFD2E
:10078000EFE00FF9FF003E79F9CF9EF0F01F3DE753
:10079000E01FF1FF0000000000000000000000006A
:1007A0001F80FF007FFFFFFFFFFFFFFFFFFFE01C39
:1007B000007F007FFFFFFFFEB46D888D18E0000012
:1007C0001F007FFFFFFFFE95AD7DB577E000000FB6
:1007D000007FFFFFFFFEA5AD9D8D19E00000060024
:1007E0007FFFFFFFFEB5ADEDB57EE000000000002D
:1007F00001800000000000000000000380000000F5
:1008000000000000000007C0000000000000000021
:100810000007C00000000000000000000FC0000042
:10082000000000000000001FE000000000000000C9
:1008300000001FE00000000000000000003FE0009A
:1008400000000000000000003FF000000000000079
:100850000000007FF0000000000000001FF87FF0A3
:10086000000000000000003FFE7FF00000000000DC
:1008700000003FFF7FF0000000000000001FFFFBB2
:10088000E0000000000000000FFFF9FFC0000000C2
:100890000000000FFFF9FFF800000000000007FF54
:1008A000F1FFFF00000000000003FC73FFFF800069
:1008B0000000000001FE3FFFFF800000000000007C
:1008C000FF1E0FFF000000000000007FFE1FFC0065
:1008D0000000000000003FFFFFF8000000000000E3
:1008E000000FDFFFE0000000000000001F19FFC044
:1008F000000000000000003F3CFF0000000000007E
:1009000000007E7CF800000000000000007FFE7CFC
:100910000000000000000000FFFFFC0000000000DD
:10092000000000FFFFFE0000000000000000FFFFCD
:10093000FE0000000000000001FFEFFE00000000CC
:1009400000000001FFCFFE0000000000000003FFD8
:1009500007FE0000000000000003FC07FE0000008E
:100960000000000003F003FE000000000000000192
:100970008000FE000000000000000000007E00007B
:1009800000000000000000003E0000000000000029
:100990000000000C000000000000078000FC0000C8
:1009A00003C0000000078001FC000003C00000003D
:1009B000078001FC000003C0000000078001E00088
:1009C00000001E000000078001E00000001E007F04
:1009D000E3F79FF9FDE7787BDFC0FFF7FFBFFDFD81
:1009E000FF787BDFC0FFF7FFBFFDFDFF787BDFC037
:1009F000F0F787BC3DE1FF787BDE00F0F787BC3D78
:100A0000E1F0787BDE0000F787803DE1E0787BDE77
:100A1000007FF7879FFDE1E0787BDE00FFF787BF6F
:100A2000FDE1E0787BDE00F0F787BC3DE1E0787B1C
:100A3000DE00F0F787BC3DE1E0787BDE00F0F78771
:100A4000BC3DE1E0787BDE00FFF7FFBFFDE1E07F2A
:100A5000FBDFC0FFF7FFBFFDE1E07FFBDFC07CF302
:100A6000F39F3DE1E03E7BCFC000000000000000AE
:100A700000000000FFFFFFFFFFFFFFFFFFFFC0FFC1
:100A8000FFFFFFFD68DB111A31C0FFFFFFFFFD2BE9
:100A90005AFB6AEFC0FFFFFFFFFD4B5B3B1A33C001
:100AA000FFFFFFFFFD6B5BDB6AFDC0454320464156
:100AB0004E2050494400302E2E2E31307620505793
:100AC0004D0025200030002E00782000207C2000E2
:100AD0003D200030002E0020782000203D20002BFB
:100AE000002B007300485953544552455349530055
:100AF0002B0041444A2E0054454D50007300544988
:100B00004D454F5554004F4E004F4646004D454D04
:100B10002053435245454E0052494748543E003CFD
:100B20004C45465400524F544154452055490052BB
:100B30004F544154452055490053415645004E4FAE
:100B40005045004155544F53415645004C4F414488
:100B5000004241434B0053455454494E47530073A0
:100B60003A00733A00434F4E5354414E540053459C
:100B70004E534641494C004D4F44450057524F4E4D
:100B800047002200FF21000000000023002600296A
:100B90000004040404040404040202020202020326
:100BA0000303030303010204081020408001020430
:100BB000081020010204081020002D2445371124BC
:100BC0001FBECFEFD8E0DEBFCDBF11E0A0E0B1E0A7
:100BD000E2EFF6E702C005900D92A83DB107D9F704
:100BE00024E0A8EDB1E001C01D92AC3EB207E1F7F0
:100BF00015E0CEEDD5E004C02197FE010E941A3A1F
:100C0000CD3DD107C9F70E94EB240C946C3B0C94AA
:100C10000000860F971FB901641B750B6F5F7F4F34
:100C20008417950744F02817390744F4861B970B5F
:100C300084179507ACF7860F971FF2CF0895089594
:100C400008950895AF92BF92CF92DF92EF92FF92F4
:100C50000F931F93CF93DF936C017B018B01040FE4
:100C6000151FEB015E01AE18BF08C017D10759F080
:100C70006991D601ED91FC910190F081E02DC601C2
:100C80000995892B79F7C501DF91CF911F910F91BC
:100C9000FF90EF90DF90CF90BF90AF90089583309A
:100CA00081F028F4813099F08230A9F008958730DE
:100CB000A9F08830C9F08430B1F4809180008F7D34
:100CC00003C0809180008F7780938000089584B561
:100CD0008F7784BD089584B58F7DFBCF8091B00060
:100CE0008F778093B00008958091B0008F7DF9CF09
:100CF000CF93DF93282F30E0F901EF52FA4F849120
:100D0000F901EB55F44FD491F901EF56F44FC4912A
:100D1000CC23A1F081110E944F06EC2FF0E0EE0FE2
:100D2000FF1FE957F44FA591B491EC91ED2381E0B9
:100D300090E009F480E0DF91CF91089580E090E0A9
:100D4000FACF1F93CF93DF93282F30E0F901EF52B2
:100D5000FA4F8491F901EB55F44FD491F901EF5614
:100D6000F44FC491CC23A9F0162F81110E944F0695
:100D7000EC2FF0E0EE0FFF1FEF5FF94FA591B4915C
:100D80008FB7F894EC91111108C0D095DE23DC9355
:100D90008FBFDF91CF911F910895DE2BF8CFCF93B6
:100DA000DF9390E0FC01EB55F44F24918F56944F64
:100DB000FC0184918823C9F090E0880F991FFC0101
:100DC000EB51FA4FA591B491FC01EF5FF94FC5913A
:100DD000D49161110DC09FB7F8948C912095822316
:100DE0008C938881282328839FBFDF91CF9108951A
:100DF000623051F49FB7F8943C91822F8095832301
:100E00008C93E8812E2BEFCF8FB7F894EC912E2B9B
:100E10002C938FBFEACF3FB7F8948091B0029091A6
:100E2000B102A091B202B091B30226B5A89B05C051
:100E30002F3F19F00196A11DB11D3FBFBA2FA92F59
:100E4000982F8827BC01CD01620F711D811D911D56
:100E500042E0660F771F881F991F4A95D1F70895C2
:100E60008F929F92AF92BF92CF92DF92EF92FF92BA
:100E70006B017C010E940B074B015C01C114D10482
:100E8000E104F104B9F00E940B07681979098A0995
:100E90009B09683E73408105910580F321E0C21AE9
:100EA000D108E108F10888EE880E83E0981EA11CA5
:100EB000B11CE4CFFF90EF90DF90CF90BF90AF9048
:100EC0009F908F9008952FB7F8946091AC02709125
:100ED000AD028091AE029091AF022FBF08950F93A3
:100EE0001F930E9463070E9463070091670410919B
:100EF00068042091690430916A04601B710B820BB5
:100F0000930B633371058105910518F081E080939F
:100F10006E040E9463076093670470936804809373
:100F2000690490936A041F910F9108950895EF92B8
:100F3000FF920F931F93CF93DF93EC01EC80FD8022
:100F40006E157F050CF070C057FF04C0240F351FCD
:100F500050E040E08E819F81FA01E20FF31F8E176F
:100F60009F071CF49C01241B350B121613060CF072
:100F70005BC0922F842F8695869586958E9DD00195
:100F80008F9DB00D11246A0F7B1FAF8DB8A1A60FE6
:100F9000B71F477049F188E0841B482F682F70E025
:100FA000FB01E753FA4FE491281708F063C0621B76
:100FB00071092FEF30E002C0359527956A95E2F769
:100FC000E2230130110539F0B0F10230110561F56D
:100FD0008C91E82702C08C91E82BEC93941720F1B8
:100FE0002C813D81A20FB31FE92FE41BE83078F07C
:100FF0000230110521F58E2F9C9190959C932C81A8
:101000003D81A20FB31F88508830B0F7E770EE2300
:1010100059F0F0E0EF53FA4FE49101301105F9F087
:1010200010F10230110519F1DF91CF911F910F914D
:10103000FF90EF900895E0958C91E823CECF81E06A
:101040000115110509F480E081959E2F8C932C8168
:101050003D81A20FB31F98509830C0F7D7CF8C9125
:10106000E82BEC93E1CFE0958C91E823FACF8C91BB
:10107000E827F7CF0130110509F4ADCFE0F20230D7
:10108000110509F4A5CFAE0DBF1DAECF0F931F9371
:10109000CF93DF9377FF04C0260F371F70E060E027
:1010A000DC011496CD91DC91FB01E20FF31FCE170A
:1010B000DF071CF49E01261B370B121613064CF596
:1010C000FA0157FD3796A3E0F595E795AA95E1F764
:1010D000EC9FD001ED9FB00DFC9FB00D11246A0F65
:1010E0007B1FDC015F96ED91FC91E60FF71F4770C7
:1010F000552781E090E001C0880F4A95EAF7482F14
:101100000130110559F0A8F02E0F3F1F02301105D4
:10111000E1F0DF91CF911F910F9108952E0F3F1FA6
:10112000E217F307B1F38191DF011197842B8C93C0
:10113000F7CF80952E0F3F1FE217F30751F39191E0
:10114000DF01119798239C93F7CFE217F30709F378
:101150008191DF01119784278C93F7CF0F931F9311
:10116000FA01DC0156964C9156974230E9F0433033
:10117000A1F1413061F514964D915C91DA01AE1BFD
:10118000BF0BFD01E21BF30B77FD0BC0DC011696D4
:101190004D915C916417750724F4AB01BF010E9467
:1011A00046081F910F91089514964D915C91DA01B4
:1011B000A61BB70BBD0161507109DC0116964D915C
:1011C0005C91DA01AE1BBF0BFD01E21BF30B77FD57
:1011D000E8CFAF010E949707E4CF16964D915C913E
:1011E000DA01A61BB70BBD0161507109CDCF0F937A
:1011F0001F93FA01DC0156964C9156974230A9F0A4
:10120000433091F1413019F514964D915C91DA011A
:10121000AE1BBF0BFD013197F7FD04C0AB01BF0151
:101220000E9497071F910F91089514964D915C911C
:10123000DA01A61BB70BBD01DC0116964D915C913E
:10124000DA01AE1BBF0BFD013197621B730BF7FD7B
:10125000E9CFDC0116964D915C91E417F50714F780
:10126000AF010E944608DECF16964D915C91DA01DF
:10127000A61BB70BBD01621B730BCECFFC0177FD24
:1012800064C080859185681779070CF05EC057FDB2
:101290005CC082859385481759070CF056C0868933
:1012A0008230B1F0833029F1813041F4848195811D
:1012B000841B950BAB01BC016150710921303105D4
:1012C00009F108F443C02230310509F463C00895E0
:1012D00084819581DC01A61BB70BBD0161507109AA
:1012E00086819781DC01A41BB50BAD0141505109EA
:1012F000E5CF86819781861B970BBA01AC014150DF
:101300005109DCCFCA0157FD0796A3E09595879553
:10131000AA95E1F7A481B5818A9F90018B9F300D3A
:101320009A9F300D1124620F731F078CF0A1E02DDE
:10133000E60FF71F4770552721E030E001C0220F6C
:101340004A95EAF78081822B80830895CA0157FD70
:10135000079633E0959587953A95E1F7A481B58195
:101360008A9F90018B9F300D9A9F300D1124620F40
:10137000731F078CF0A1E02DE60FF71F477055276C
:1013800081E090E001C0880F4A95EAF7809590814E
:101390008923DACFCA0157FD079623E095958795F3
:1013A0002A95E1F7A481B5818A9F90018B9F300D2A
:1013B0009A9F300D1124620F731F078CF0A1E02D4E
:1013C000E60FF71F4770552721E030E001C0220FDC
:1013D0004A95EAF780818227B7CF08958EBD000035
:1013E0000DB407FEFDCF8EB508958CBD9DBD08954B
:1013F0000895FC016370668B848195812681378115
:10140000613039F0633029F09187808733872287F4
:101410000895318720879387828708952F923F927E
:101420004F925F926F927F928F929F92AF92BF92F4
:10143000CF92DF92EF92FF920F931F93CF93DF93A0
:10144000CDB7DEB76A970FB6F894DEBF0FBECDBF3B
:101450009A8F898F7A8369834A01D22E18870F83E6
:101460003701BC2CDC0159962D913C915A972115DE
:10147000310509F015C118968D919C91199768173F
:1014800079070CF0D7C11A968D919C91481759078E
:101490000CF0D0C14C2C512CB6E0CB9E600D711DD0
:1014A00011247C876B87161617060CF0C3C1EA2D32
:1014B000F0E0FA87E98793E0EE0FFF1F9A95E1F7D6
:1014C000F88BEF87CF01840F951F181619060CF0C3
:1014D000B1C1A98DBA8D58968C91811104C0BFEA13
:1014E000BD1508F4D394A98DBA8DED91FC91119797
:1014F0000284F385E02DCD010995B5E0DB9EC001A6
:101500001124E981FA81FC83EB83312C212C9C018D
:101510002F533F4F388F2F8B4A2D50E05E8B4D8BD2
:10152000EF89F88DE20DF31D44919E828D82D12CBE
:10153000C12C69817A81620D731D7A8B698B842F2E
:1015400090E09C8B8B8BE98DFA8DA081B18140FF5F
:1015500082C0F1E0BF126FC0AF126DC01C96ED915A
:10156000FC912F813885A4014C0D5D1D69897A8914
:10157000898D9A8D0995EB89FC89F595E7954E2F14
:101580005FEFC51AD50A6D817E818D899E89680FAE
:10159000791F7E836D8398E0C916D10481F6AFEF81
:1015A0002A1A3A0AEB81FC81E40DF51DFC83EB83DA
:1015B000F5E02F16310409F0B3CF2F8138852615B9
:1015C0003705B9F0A98DBA8DED91FC91B1E0BB1250
:1015D00057C0AB1255C069817A816B5F7F4F00881D
:1015E000F189E02D830128E030E0A401898D9A8DF6
:1015F0000995A98DBA8DED91FC9111970688F7890F
:10160000E02DCD016A960FB6F894DEBF0FBECDBFB8
:10161000DF91CF911F910F91FF90EF90DF90CF90CE
:10162000BF90AF909F908F907F906F905F904F9002
:101630003F902F9009941E96ED91FC91EF80F884D5
:1016400009851A8592014D815E816B817C81898D2E
:101650009A8D099590CF2F8138852615370509F485
:101660008ACF31E0B31207C0A31205C01C96ED91DA
:10167000FC91930178CF1E96ED91FC917301E0CF20
:101680006B857C85641975090684F785E02D7301E7
:101690000F8518899201A401898D9A8D0995A9CF8A
:1016A000F90134969491329745915491D91AB7E043
:1016B000DB9E400D511D1124F901259134913C8B85
:1016C0002B8BFA0125903490FA0132967490319662
:1016D0003491398B329664903196449041E04C15A8
:1016E00018F04A1508F07FC0662D062C000C770B09
:1016F0007C836B83842D042C000C990B9E838D833B
:10170000A98DBA8DED91FC9111970284F385E02D9E
:10171000CD010995512CD12CC12CEA2DF0E0FA878E
:10172000E9872B2D30E03C872B87A401440D511D08
:1017300047FC5A95588F4F8B69817A81660D711DD0
:1017400067FC7A957E876D877989C71608F051CF37
:101750002C2D30E04D815E81420F531FA985BA8543
:101760004A9FC0014B9F900D5A9F900D1124FC0180
:10177000E80DF91DF88BEF87852D612C4F89588D69
:10178000420F531F5E8B4D8B671408F050C04424EA
:101790004394480E877041F4C1010196EB89FC899E
:1017A000E20DF31DD4901C01D7FE19C0A98DBA8D8E
:1017B000ED91FC91662D70E0B1E0BB1219C0AB1247
:1017C00017C02D853E85620F731F0484F585E02DBB
:1017D0002F8138854D895E89898D9A8D0995DD0C1B
:1017E0006394842DD1CF1E821D821C821B8288CFE0
:1017F0004B815C81640F751FAB85BC856A9FC001FE
:101800006B9F900D7A9F900D112469817A81680FEA
:10181000791F0684F785E02DEF80F88409851A8505
:101820009D014F855889898D9A8D0995D8CF570C80
:10183000C3948ACF6A960FB6F894DEBF0FBECDBFB1
:10184000DF91CF911F910F91FF90EF90DF90CF909C
:10185000BF90AF909F908F907F906F905F904F90D0
:101860003F902F9008958F929F92AF92CF92EF92D8
:10187000FF920F931F93CF93DF93EC01262F898D57
:101880009A8D009709F051C06A30D1F41D861C86EC
:101890008D8948E0849F900111248E859F85820F59
:1018A000931F9F878E8781E090E0DF91CF911F91FA
:1018B0000F91FF90EF90CF90AF909F908F900895F1
:1018C0006D3089F3CC88AD888F898823C1F08C85F1
:1018D0009D8536E0C39E800D911D11244885598554
:1018E0004817590764F44E855F851D861C8638E0CD
:1018F000A39EC0011124840F951F9F878E87EA88BD
:10190000FB88088919894E855F856C857D85CE01A8
:101910000E940E0A2C898C859D8546E0249F800DAF
:10192000911D11249D878C87BECF6A3069F41D8676
:101930001C86FC013896E4912D898E859F85E29F57
:10194000800D911D1124ADCF6D3009F4ACCFFC0199
:1019500034963491631708F4A6CF3296E491E617D3
:1019600008F4A1CFFC01329685909490462F431B3A
:10197000342F47E0349F800C911C1124F4013296DF
:1019800034913196E4913323A9F1EE2399F1CC8877
:10199000F4013596E491AD884F89442301F10E2E70
:1019A000000CFF0BE30FF11DCE9EA001CF9E500D4A
:1019B00011246C857D85460F571F688579856417CE
:1019C00075076CF44E855F851D861C86FC01389674
:1019D000E491AE9E400D511D11245F874E87EA8829
:1019E000FB88088919894E855F856C857D85CE01C8
:1019F0000E940E0AF4013496E4912C898C859D8511
:101A0000E29F800D911D11248DCF682F88EA94E00C
:101A10000C94330C0F931F93CF93DF938C01D0E082
:101A2000C0E0F801EC0FFD1F6491662341F088EAE5
:101A300094E00E94330C892B11F02196F2CFCE0155
:101A4000DF91CF911F910F9108956F927F928F92A6
:101A50009F92AF92BF92CF92DF92EF92FF920F933D
:101A60001F93CF93DF93EC016B015A0139014801B9
:101A7000E881F9810284F385E02D0995E881F981F7
:101A80000288F389E02D87019301A501B601CE01FB
:101A90000995A501480D591D41505109E881F98169
:101AA0000288F389E02D9301B601CE010995E88102
:101AB000F9810088F189E02D9401A501B601CE01DC
:101AC0000995C60CD71CB60161507109E881F981EE
:101AD0000088F189E02D9401A501CE010995E881E6
:101AE000F9810688F789E02DCE01DF91CF911F9112
:101AF0000F91FF90EF90DF90CF90BF90AF909F90AD
:101B00008F907F906F9009946F927F928F929F92A7
:101B1000AF92BF92CF92DF92EF92FF920F931F93FB
:101B2000CF93DF935C01EB016A0149013801870122
:101B3000DC01ED91FC916217730719F564167506C7
:101B40002CF0962D872D3A01C92ED82E96012619F4
:101B500037092F5F3F4F048CF58DE02DA301BE01A7
:101B6000C5010995DF91CF911F910F91FF90EF90E3
:101B7000DF90CF90BF90AF909F908F907F906F90AD
:101B800008954615570591F42617370724F0892D37
:101B90004B01C22FD82F9E01281939092F5F3F4FC3
:101BA000068CF78DE02DA601B401DACF0284F3850F
:101BB000E02D0995D501ED91FC910488F589E02D82
:101BC00083019401A601BE01C5010995D501ED91DE
:101BD000FC910688F789E02DC501DF91CF911F9117
:101BE0000F91FF90EF90DF90CF90BF90AF909F90BC
:101BF0008F907F906F900994EF92FF920F931F93B5
:101C0000DC011A960D911C911B9718962D913C9111
:101C10001997ED91FC9100A0F1A1E02D7B0150E01E
:101C200040E070E060E009951F910F91FF90EF9008
:101C300008954F925F926F927F928F929F92AF9290
:101C4000BF92CF92DF92EF92FF920F931F93CF93A9
:101C5000DF936C012B015A0139014801DC01ED9140
:101C6000FC910284F385E02D0995E201640C751C5A
:101C7000D601ED91FC91C615D7055CF40088F18979
:101C8000E02D87019401A501BE01C60109952196A9
:101C9000EFCF0688F789E02DC601DF91CF911F9124
:101CA0000F91FF90EF90DF90CF90BF90AF909F90FB
:101CB0008F907F906F905F904F9009948F929F923A
:101CC000AF92BF92CF92DF92EF92FF920F931F934A
:101CD000CF93DF93EC015B014A016901E881F9814F
:101CE0000284F385E02D099595012C0D3D1D2150B1
:101CF0003109E881F9810488F589E02D78018401B2
:101D0000A401B501CE010995E881F9810688F7891A
:101D1000E02DCE01DF91CF911F910F91FF90EF90B9
:101D2000DF90CF90BF90AF909F908F9009948F924B
:101D30009F92AF92BF92CF92DF92EF92FF920F935A
:101D40001F93CF93DF93EC015B014A016901780196
:101D5000E881F9810284F385E02D0995C80CD91C2E
:101D6000860101501109E881F9810488F589E02D87
:101D70009501A401B501CE010995E881F981068894
:101D8000F789E02DCE01DF91CF911F910F91FF9048
:101D9000EF90DF90CF90BF90AF909F908F9009947D
:101DA000EF92FF920F931F93DC01ED91FC9100A045
:101DB000F1A1E02D09951F910F91FF90EF900895EB
:101DC0000F931F93DC01ED91FC91068CF78DE02DB4
:101DD00009951F910F9108950F931F93DC01ED91C9
:101DE000FC91048CF58DE02D09951F910F910895BC
:101DF000DC01ED91FC910084F185E02D09943F9286
:101E00004F925F926F927F928F929F92AF92BF920A
:101E1000CF92DF92EF92FF920F931F93CF93DF93B6
:101E20005C017B014A016901390187E0680E711C80
:101E300093E0759467949A95E1F72B01400E511E3B
:101E400010E000E0312CD0E0C0E0CE01877099278F
:101E5000330C892B59F4FE0183E0F595E7958A95BB
:101E6000E1F7E00FF11FE80DF91D349037FE0AC0CD
:101E700021E030E0A701B5016C0F7D1F88EA94E0F6
:101E80000E94F80E2196CC16DD06F9F68FEFE81ABF
:101E9000F80A060D171DE414F504A9F6DF91CF9199
:101EA0001F910F91FF90EF90DF90CF90BF90AF9078
:101EB0009F908F907F906F905F904F903F9008958C
:101EC0002F923F924F925F926F927F928F929F924A
:101ED000AF92BF92CF92DF92EF92FF920F931F9338
:101EE000CF93DF9300D000D000D0CDB7DEB73C0158
:101EF0006A013E832D83FC82EB825801A41AB50A45
:101F0000B7FE03C0B194A194B1088D809E80861A5B
:101F1000970A97FE03C09194819491088A149B04B8
:101F20005CF0902F812F0D811E819D838E839C2DCF
:101F30008D2D6B01692F782F0C151D055CF09D818F
:101F40008E817E836D83692F782F902F812F86015C
:101F5000C92ED82E1601201A310A2B012D813E815F
:101F6000421A530A57FE03C051944194510871011B
:101F700037FE03C03FEFE31AF30AF594E7948D812F
:101F80009E81861797075CF5A1E0B0E0BA83A9832C
:101F9000C016D1064CF1D301ED91FC910484F58576
:101FA000E02D2B813C81A8016D817E818A149B04E8
:101FB0001CF04D815E81B801C3010995E418F50854
:101FC000F7FE0AC02D813E8189819A81280F391F31
:101FD0003E832D83E20CF31C0F5F1F4FD9CF2FEFF1
:101FE0003FEF3A832983D4CF26960FB6F894DEBF0D
:101FF0000FBECDBFDF91CF911F910F91FF90EF905A
:10200000DF90CF90BF90AF909F908F907F906F9018
:102010005F904F903F902F90089508952091610216
:10202000260F3327331F21323105ECF4209185022E
:10203000FC0190E080E0243069F082E00895A091F6
:1020400061022191AC014F5B5D4FA40FB52FB11D13
:102050002C930196861798F380916102680F609324
:10206000610280E0089581E008959B01AC0160E089
:1020700074E284EF90E00E949C37205131094109BD
:10208000510956954795379527952093B80008959F
:102090001092850281E0809387021092860261E0AF
:1020A00082E10E94A10661E083E10E94A106E9EBC2
:1020B000F0E080818E7F808380818D7F808388E4C3
:1020C0008093B80085E48093BC000895CF93DF939C
:1020D00091E0909340028823B9F0C091B800D0916C
:1020E000BA008091BC008A7B8093BC0060E082E1F2
:1020F0000E94A10660E083E10E94A1060E944810B0
:10210000D093BA00C093B800DF91CF910895E091C9
:10211000BA028091B902E81730F4F0E0E55EFD4FB5
:10212000808190E008958FEF9FEF08959091BA021B
:102130008091B9022FEF3FEF981748F4E92FF0E0B4
:10214000E55EFD4F208130E09F5F9093BA02C901A8
:1021500008958091B9029091BA02891B990B089554
:10216000CF92DF92EF92FF920F931F93CF93DF9363
:102170007C01CB018A0120917304222389F0EB01B9
:102180006B01C40ED51ECC15DD0569F06991D70130
:10219000ED91FC910190F081E02DC7010995F3CFFD
:1021A000642F0E940E10C801DF91CF911F910F91F3
:1021B000FF90EF90DF90CF900895CF93DF931F9221
:1021C000CDB7DEB76983209173042223F9F0209103
:1021D0007004203258F021E030E0FC013383228388
:1021E00090E080E00F90DF91CF910895809171048D
:1021F000E82FF0E0E550FE4F998190838F5F809348
:1022000071048093700481E090E0ECCF61E0CE0136
:1022100001960E940E10F7CFCF92DF92EF92FF92BD
:102220000F931F93CF93DF93D091700481E0D1324D
:1022300008F09CC0C09172040E940B076B017C01E6
:102240008091850281116CC082E08093850281E0DB
:10225000809387028FEF809384021092A902D0931B
:10226000A802ABEFB1E0E8E8F2E080E0D8138DC05F
:102270001092AA028091AA02CC0FC82BC093AA0286
:1022800080918602813009F084C0109286020E94FB
:102290000B076B017C018091AA028093BB008091A7
:1022A0003C0290913D02A0913E02B0913F02892BE9
:1022B0008A2B8B2BA1F00E940B0700913C021091FE
:1022C0003D0220913E0230913F026C197D098E093A
:1022D0009F09061717072807390708F442C080919D
:1022E000BC0083FDD8CF85EC8093BC000E940B0717
:1022F0006B017C0180918502823009F44CC0809191
:1023000084028F3F09F469C080918402803209F40D
:1023100066C080918402803309F463C084E026C0E3
:1023200080913C0290913D02A0913E02B0913F020B
:10233000892B8A2B8B2B09F483CF0E940B070091EA
:102340003C0210913D0220913E0230913F026C19F7
:102350007D098E099F09061717072807390708F016
:102360006FCF80913B020E94661085E0109271044D
:102370001092700410927304DF91CF911F910F910E
:10238000FF90EF90DF90CF9008959D9191938F5F94
:102390006DCF85EEA9CF80913C0290913D02A09136
:1023A0003E02B0913F02892B8A2B8B2B09F4A2CFDE
:1023B0000E940B0700913C0210913D0220913E02C9
:1023C00030913F026C197D098E099F090617170786
:1023D0002807390708F08ECFC4CF80E0C7CF82E04E
:1023E000C5CF83E0C3CFEF92FF920F931F93CF939C
:1023F000DF937C01C62F8091C5049091C60400979D
:1024000009F459C02091C90431E03093730420933A
:1024100072041092710410927004DC01ED91FC9131
:102420000190F081E02D60E009958701EE24E394AE
:10243000F12CD1E0C1508091C5049091C604CF3FEA
:1024400091F1B0E2EB16F104D8F00E940C118091EA
:10245000C5049091C6042091C904D09373042093BD
:1024600072041092710410927004DC01ED91FC91E1
:102470000190F081E02D60E00995EE24E394F12CC9
:102480008091C5049091C604F8016491DC01ED913E
:10249000FC910190F081E02D0995BFEFEB1AFB0A4A
:1024A0000F5F1F4FC7CFDF91CF911F910F91FF900B
:1024B000EF900C940C11E091D504F091D60490812A
:1024C0008091DB048095892380838701C15008F4C3
:1024D00038C0F80184912091C3043091C404232BA7
:1024E00029F00E94EE090F5F1F4FF0CF28E030E087
:1024F00040E8E091D104F091D2049091D904582F92
:102500005423D9F05081952B9083E091D304F0911E
:10251000D40490815091DA04952B9083E091D304F8
:10252000F091D40450819091DA0490959523908392
:10253000469521503109E9F6D6CF508190959523E3
:10254000E3CFDF91CF911F910F91FF90EF9008950E
:102550001F93CF93DF93EC018D8D9E8D009721F11A
:10256000162F29A131E03093730420937204109246
:10257000710410927004DC01ED91FC910190F081E6
:10258000E02D60E009958D8D9E8DDC01ED91FC9133
:102590000190F081E02D612F09958D8D9E8DDF9149
:1025A000CF911F910C940C11ADA5BEA59C918BA948
:1025B000809589238C938B8D9C8D892B31F0862F70
:1025C000DF91CF911F910C94EE0928E030E080E874
:1025D000A9A5BAA599A9462F4823C1F04C91942BDF
:1025E0009C93ABA5BCA59C914AA9942B9C93ABA5AD
:1025F000BCA54C919AA9909594239C9386952150C3
:10260000310931F7DF91CF911F9108954C91909549
:102610009423E6CFCF93C82F8091C5049091C60430
:10262000892B01F16091DD047091DE048091DF045B
:102630009091E0040E9435106C2F88EA94E00E948B
:10264000A8128091C5049091C604892B11F1609164
:10265000E1047091E2048091E3049091E404CF914D
:102660000C9435108091C3049091C404892B31F0EF
:102670008091E6049091E7040E94F509E091D70467
:10268000F091D80490818091DC0480958923808327
:10269000D3CFE091D704F091D80480819091DC04ED
:1026A000892B8083CF910895DF92EF92FF920F9351
:1026B0001F93CF93DF938091C5049091C604892B1B
:1026C00009F48AC06091DD047091DE048091DF041A
:1026D0009091E0040E94351065E082E89BE00E9442
:1026E000F3116091AC04615088EA94E00E94A81252
:1026F0002091AE043091AF04C901079697FD07966B
:1027000023E0959587952A95E1F72091AC043091C7
:10271000AD04829F8001839F100D929F100D1124A4
:10272000C091C704D091C8048091C5049091C6049B
:102730000C0F1D1F009709F480C02091C90431E0DF
:1027400030937304209372041092710410927004F9
:10275000DC01ED91FC910190F081E02D60E40995A0
:10276000EE24E394F12CDD24D3948091C504909160
:10277000C6040C171D0709F446C0B0E2EB16F104BD
:10278000D8F00E940C118091C5049091C60420914C
:10279000C904D092730420937204109271041092B1
:1027A0007004DC01ED91FC910190F081E02D60E47A
:1027B0000995EE24E394F12C8091C5049091C60410
:1027C0006991DC01ED91FC910190F081E02D09957A
:1027D000BFEFEB1AFB0AC9CF8091C3049091C404E8
:1027E000892B31F08091E6049091E7040E94F5096D
:1027F000E091D704F091D80490818091DC04809519
:102800008923808369CF0E940C118091C504909127
:10281000C604892B09F452C06091E1047091E2046E
:102820008091E3049091E404DF91CF911F910F9187
:10283000FF90EF90DF900C943510E091D504F0916B
:10284000D60480819091DB04892B80830C171D07AF
:10285000E1F289912091C3043091C404232B19F033
:102860000E94EE09F3CF28E030E040E8E091D10487
:10287000F091D2049091D904582F5423D9F050816B
:10288000952B9083E091D304F091D40490815091E2
:10289000DA04952B9083E091D304F091D404508115
:1028A0009091DA04909595239083469521503109B3
:1028B000E9F6CCCF508190959523E3CFE091D704F2
:1028C000F091D80480819091DC04892B8083DF9182
:1028D000CF911F910F91FF90EF90DF9008951F937C
:1028E000CF93DF93EC01162F8D8D9E8D892BC9F030
:1028F0006DA97EA98FA998AD0E94351066EA1111C5
:1029000067EACE010E94A8128D8D9E8D892BC9F099
:1029100069AD7AAD8BAD9CADDF91CF911F910C94D9
:1029200035108B8D9C8D892B21F08EAD9FAD0E9433
:10293000F509EFA5F8A990818CA98095892380835A
:10294000DDCFEFA5F8A980819CA9892B8083DF9139
:10295000CF911F91089590E080E00895DC0180E020
:10296000615090F09D919827E92FEF70F0E0EF55BE
:10297000FF4F2491E92FE295EF70F0E0EF54FF4F05
:10298000E491822F8E27ECCF0895DC012C911196D3
:10299000ED91FC91F8948181822B81839281322F79
:1029A00030959323928387E090E00197F1F781813E
:1029B0008323818383E290E00197F1F790817894FB
:1029C000EFECF0E03197F1F7922381E009F480E039
:1029D0000895FC0190810180F281E02D292F20953E
:1029E00060FF14C0F8948281822382838181892BC5
:1029F0008183A3E2B0E01197F1F78281982B928353
:102A0000789487ED90E00197F1F70895F89482812A
:102A1000822382838181892B8183AFEFB0E011977C
:102A2000F1F78281982B928378948FE090E0EBCF3E
:102A3000DF92EF92FF920F931F93CF93DF93EC01FE
:102A4000D62EE42E08E010E0FF24F39461E08D2DF3
:102A50008F2109F460E0CE010E94E914FF0C0150BF
:102A60001109A1F7E11010C0F894E981FA81918170
:102A70008881809589238183E981FA819281888187
:102A80008095892382837894DF91CF911F910F9154
:102A9000FF90EF90DF900895EF92FF920F931F93B6
:102AA000CF93DF938C017B0140E065E50E94181510
:102AB000E70188E0E80EF11C699140E0C8010E943E
:102AC0001815CE15DF05C1F7DF91CF911F910F913A
:102AD000FF90EF900895FC0190810180F281E02D3C
:102AE000F8948181292F20958223818378943DE772
:102AF00043E050E0315029F1DA011197F1F780817C
:102B00008923C1F3F8948281822382838181892B76
:102B100081837894ABE7B7E01197F1F7F89481815E
:102B200082238183A3E1B1E01197F1F7808198239B
:102B300081E009F080E07894E3E6F6E03197F1F780
:102B4000089580E008956F927F928F929F92AF9246
:102B5000BF92CF92DF92EF92FF920F931F93CF938A
:102B6000DF938C01EB0180918004909181040E949D
:102B70006B15882309F43FC0B801809180049091BF
:102B800081040E944C1540E06EEB8091800490918E
:102B900081040E9418157E016E0189E0C80ED11CC7
:102BA0008E01A0908004B090810488E0882E912C42
:102BB000712C66246394C5010E94C5148111762886
:102BC000660CE1E08E1A9108B1F7F80171928F015D
:102BD000CE16DF0631F780918004909181040E9427
:102BE0006B15813041F4F70181917F01811105C09E
:102BF000E017F107C1F790E008C068E0CE010E943D
:102C0000AE1491E028852813F6CF892FDF91CF915C
:102C10001F910F91FF90EF90DF90CF90BF90AF90FA
:102C20009F908F907F906F900895CF92DF92EF9258
:102C3000FF9280918004909181040E946B1540E086
:102C40006CEC80918004909181040E941815409151
:102C5000770464E480918004909181040E941815A7
:102C600080917B04882309F1E0917A0480917C04AF
:102C7000882301F18091770481111CC00E946307B1
:102C80006B017C0180918004909181040E94C514A5
:102C9000813059F00E9463076C197D098E099F09E4
:102CA0006E3E72408105910568F3FF90EF90DF90D2
:102CB000CF900895E9508EEE92E0E33038F4F0E0E2
:102CC000EE0FFF1FE258FE4F808191816C01990F3A
:102CD000EE08FF0880917804882329F060E0809155
:102CE00079040E94A106C701B6010E9430078091B5
:102CF00078048823D1F261E080917904FF90EF900D
:102D0000DF90CF900C94A1064F925F926F927F92CA
:102D10008F929F92AF92BF92CF92DF92EF92FF92EB
:102D2000CF932091F9013091FA012F5F3F4F3093FB
:102D3000FA012093F9016091490470914A04072E29
:102D4000000C880B990BC090F501D090F601E09033
:102D5000F701F090F8016C0D7D1D8E1D9F1DC09137
:102D60006C04C090F101D090F201E090F301F0907A
:102D7000F40140910401509105012417350708F42E
:102D800074C0409148044F3708F057C04F5F4093DC
:102D900048044901B12CA12CA5010E949C372901AE
:102DA0001092F5011092F6011092F7011092F801BD
:102DB000CC2309F445C080911701C80ED11CE11C39
:102DC000F11CC092F101D092F201E092F301F09275
:102DD000F4016091F1017091F2018091F301909101
:102DE000F401A50194010E949C371092F101109208
:102DF000F2011092F3011092F4018091480490E0E6
:102E0000FC01EE0FFF1FE853FD4F518240828853B3
:102E10009C4FFC0120831092FA011092F901CF918E
:102E2000FF90EF90DF90CF90BF90AF909F908F90EA
:102E30007F906F905F904F90089510924804A9CFB3
:102E40008091610490916204092E000CAA0BBB0BC7
:102E50008C0D9D1DAE1DBF1D8093F1019093F2015D
:102E6000A093F301B093F401B4CF6093F501709394
:102E7000F6018093F7019093F801CC2379F08091CB
:102E80001701C80ED11CE11CF11CC092F101D092B7
:102E9000F201E092F301F092F401C1CF809161045C
:102EA00090916204092E000CAA0BBB0B8C0D9D1D8A
:102EB000AE1DBF1D8093F1019093F201A093F30129
:102EC000B093F401ACCFCF93DF93EC018091EE018E
:102ED0008093ED018C2F80958093EE0161E08BE073
:102EE0000E94CF06209729F560E08BE00E94A106A2
:102EF0008091EE0181111AC08091ED018823B1F01B
:102F00000E9463076093560470935704809358049B
:102F10009093590420915504211152C060934F049D
:102F2000709350048093510490935204DF91CF9199
:102F30000895CF3FD10511F461E0D7CFECEDF5E076
:102F4000E491E33019F140F4E130B1F0E230C9F03E
:102F5000C038D1058CF7C8CFE73011F1E83041F126
:102F6000E430B1F780918000806280938000D0933C
:102F70008B00C0938A00BCCF84B5806884BDC7BD78
:102F8000B7CF84B5806284BDC8BDB2CF80918000C8
:102F9000806880938000D0938900C0938800A8CF78
:102FA0008091B00080688093B000C093B300A0CF40
:102FB0008091B00080628093B000C093B40098CF3D
:102FC00010925504B3CF8091BF02882379F01092FC
:102FD000BF020E9463076093670470936804809344
:102FE000690490936A048FEA0C940A1308958091FF
:102FF000DC019091DD011092DD011092DC01109254
:103000006D040895BF92CF92DF92EF92FF920F93DB
:103010001F93CF93DF93EC01B62EC72E8D858111C0
:1030200005C0CE010E946B1581110EC01B861D8646
:103030001C8680E0DF91CF911F910F91FF90EF9060
:10304000DF90CF90BF90089540E060EFCE010E94E6
:10305000181501E0E12CD12C11E0CE010E94C5141D
:10306000F82ECE010E94C51491E0F91218C08130EB
:1030700099F51134D8F2DB86D11002C081E08D873A
:103080008B81882399F22396EB2DFC2DCF01089696
:1030900029912193E817F907D9F781E0CBCFEE2DDD
:1030A000F0E0F8120FC08B851817A0F4DE01AE0F08
:1030B000BF1F13968C91802379F4F12C193008F4FA
:1030C0001C87D12EEC0FFD1F8381902F90958923B3
:1030D00083830AC08113F1CFFE01EE0DF11D8381C0
:1030E000802B8383FF24F3946F2DCE010E94E9147B
:1030F0001F5F000F11F4E39401E087E08E1508F0E4
:10310000ACCFB7CFFF920F931F93CF93DF938C0178
:10311000F62EE0918004F0918104138615861486C2
:1031200012861186108617821682158214821382E7
:10313000C0E0B80180918004909181040E9402183F
:10314000D82F882329F0FC1629F0CF5FFC1688F7CA
:10315000D0E008C067E0C8010E94AE14F801978172
:103160008913F3CF8D2FDF91CF911F910F91FF9096
:1031700008950F931F93CF93DF93CDB7DEB7619779
:103180000FB6F894DEBF0FBECDBF8BE080937A04FC
:1031900000E080917E04081708F0A7C0602FCE01E0
:1031A0000A960E9482188A85803109F47EC01091A7
:1031B0007A04BE016F5F7F4FCE010A960E94A3156D
:1031C000882309F472C0E12F1D3008F470C0ECE0D0
:1031D000EA508FE1E33020F4F0E0EC57FE4F8081BD
:1031E0009D81981709F461C08D838091800490912E
:1031F00081040E946B15BE01665F7F4F8091800441
:10320000909181040E944C1540E06EE4809180040E
:10321000909181040E94181540E06B818091800498
:10322000909181040E94181540E06C818091800487
:10323000909181040E9418158A85803141F040E008
:103240006D8180918004909181040E941815809175
:1032500080049091810420917D04222321F10E9419
:103260006B15882311F1BE01665F7F4F809180044A
:10327000909181040E944C154091770468E48091FC
:103280008004909181040E94181580917704811127
:1032900013C064E170E080E090E00E94300780910C
:1032A0008004909181040E946B150F5F72CF1930DA
:1032B00008F08ECFE9E08CCF80917804882329F044
:1032C00060E0809179040E94A10664E170E080E0F2
:1032D00090E00E94300780917804882301F361E038
:1032E000809179040E94A106DACF61960FB6F89416
:1032F000DEBF0FBECDBFDF91CF911F910F9108951B
:10330000FC0101900020E9F73197AF01481B590BF0
:10331000BC0188EA94E00C9422068F929F92AF92AF
:10332000BF920F931F93CF93DF93CDB7DEB7A197D3
:103330000FB6F894DEBF0FBECDBF19A2423008F41D
:103340004AE08E010F5D1F4F842E912CB12CA12CD1
:10335000A50194010E949C37E62FB901CA01EA3009
:10336000F4F4E05DD801EE938D01232B242B252B63
:1033700079F790E080E0109719F0CD010E94801954
:10338000A1960FB6F894DEBF0FBECDBFDF91CF91EF
:103390001F910F91BF90AF909F908F900895E95C1F
:1033A000E1CFCF92DF92EF92FF92CF93DF9397FF1F
:1033B00019C06B017C018DE20E94050DEC016627AE
:1033C0007727CB016C197D098E099F094AE00E947D
:1033D0008D198C0F9D1FDF91CF91FF90EF90DF90A3
:1033E000CF9008954AE0DF91CF91FF90EF90DF906A
:1033F000CF900C948D19BC01990F880B990B0C94EC
:10340000D119FF920F931F93CF93DF93EC01F62E08
:103410006AE070E00E94063A8B0182E0F11001C080
:1034200081E08093BC048093BD04C73F8FEFD80731
:1034300020F086E790E00E940A0DC8010E94FB1967
:10344000FF2029F081E08093BC048093BD0484E7D1
:1034500090E00E940A0D26EF2003C001219F900DED
:1034600011248C0F9D1F1816190644F02AE0209F86
:10347000C001219F900D11248C1B9D0B0E94FB19F4
:1034800087EFDF91CF911F910F91FF900C94050D65
:103490004F925F926F927F928F929F92AF92BF9264
:1034A000CF92DF92EF92FF920F931F9382E080936F
:1034B000BC048093BD0481E090E09093B5048093B8
:1034C000B4049093B7048093B6048BE990E00E9413
:1034D0000A0D81E08093BC048093BD0480911601A5
:1034E000893009F093C084E990E00E940A0D809130
:1034F0006B0481110FC082E0E82EF12C00E110E096
:1035000020E830E050E040E070E060E088EA94E0DD
:103510000E94190E82E08093BC048093BD0481E078
:1035200090E09093B5048093B40481E190E090938F
:10353000B7048093B60480911601893009F069C000
:1035400060915C0470915D0490E080E04AE00E942C
:103550008D198DE890E00E940A0D80915C04909195
:103560005D04892B09F47CC080915A0490915B041E
:10357000892B09F475C081E08093BC048093BD045D
:1035800088E490E09093B5048093B40485E190E0E2
:103590009093B7048093B6040E9463076B017C018B
:1035A000409056045090570460905804709059040D
:1035B0008091160120915C0430915D04A0E6BAEE82
:1035C000893099F50E94BE37460E571E681E791E37
:1035D000C701B601641975098609970928EE33E019
:1035E00040E050E00E946A37CA01B9011F910F9173
:1035F000FF90EF90DF90CF90BF90AF909F908F9013
:103600007F906F905F904F900C94D1198FE890E06D
:103610006CCF60915A0470915B0490E080E04AE0C6
:103620000E948D198BE890E096CF0E94BE374B0127
:103630005C0120915A0430915B04A8EEB3E00E9433
:10364000BE37860E971EA81EB91E840C951CA61C9C
:10365000B71CC701B601681979098A099B09BECF51
:103660001F910F91FF90EF90DF90CF90BF90AF90A0
:103670009F908F907F906F905F904F900895EF9202
:10368000FF920F931F93CF93DF9382E08093BC044C
:103690008093BD0485E090E09093B5048093B404DA
:1036A00081E090E09093B7048093B60480E890E0C6
:1036B0000E940A0D81E08093BC048093BD0488E3DE
:1036C00090E09093B5048093B40485E190E09093EA
:1036D000B7048093B6046091120188EA94E00E94D6
:1036E000330C80916104909162040E94FB198091D7
:1036F0006B0481110FC092E0E92EF12C00E110E083
:1037000020E830E050E040E070E060E088EA94E0DB
:103710000E94190E80911601CAEFC80F863009F079
:1037200044C082E08093BC048093BD04D0E0CC0F01
:10373000DD1FFE01E658FE4F818190E0208130E0E0
:103740003093B5042093B4049093B7048093B604E7
:103750006091110170E090E080E04AE00E948D19D4
:1037600080911601873019F582E08093BC04809324
:10377000BD04CA58DE4F898190E0288130E0309343
:10378000B5042093B4049093B7048093B604609179
:10379000060170E090E080E04AE0DF91CF911F9158
:1037A0000F91FF90EF900C948D1981E0BBCF81E0D9
:1037B000DCCFCF93DF930E940A0DEC0185EC91E002
:1037C0000E9480198C0F9D1FDF91CF910895CF9398
:1037D000DF930E94050DEC0185EC91E00E948019B9
:1037E0008C0F9D1FDF91CF910895EF92FF920F9361
:1037F0001F93CF93DF9311E01093BC041093BD048B
:103800001092B5041092B4041092B7041092B6044A
:103810008BE00E94E71B8CE00E94E71B80EF0E9478
:10382000E71B809112010E94050DC9E0D0E0D09302
:10383000B504C093B4041092B7041092B60460E0CB
:103840008091490490914A040E94011AD093B504D2
:10385000C093B40487E090E09093B7048093B604DB
:1038600060E080910F01909110010E94011AD093A5
:10387000B504C093B4048FE090E09093B7048093B4
:10388000B6048091EF019091F00160E091958195EF
:1038900091090E94011AD093B504C093B40487E142
:1038A00090E09093B7048093B604A0916304B09124
:1038B000640424E630E00E94203A2FEF30E040E03C
:1038C00050E00E946A37CA01B9010E94D1198EE7FF
:1038D00090E00E94D91BC0911601C250D0E08091A7
:1038E0006B04882329F1FE01EE0FFF1FE059FE4F04
:1038F000808190E09093B5048093B4049093B704D2
:103900008093B6041093BC041093BD0480E10E9420
:10391000050D92E0E92EF12C00E210E02CE230E0FF
:1039200050E040E070E060E088EA94E00E94190E08
:1039300080911601823009F011C18093BC048093FC
:10394000BD0486E08C9FF0018D9FF00D1124E25A9A
:10395000FE4F818190E0208130E03093B5042093C8
:10396000B4049093B7048093B60480910B019091B6
:103970000C010E94FB1980911601823029F481E02C
:103980008093BC048093BD0486E08C9F80018D9F52
:10399000100D1124025A1E4FF801838190E02281FC
:1039A00030E03093B5042093B4049093B70480932F
:1039B000B6048CE790E00E940A0DF801858190E042
:1039C000248130E03093B5042093B4049093B7047D
:1039D0008093B6048091C6029091C702919581951B
:1039E00091090E94FB1980911601833029F482E02D
:1039F0008093BC048093BD0486E08C9FF0018D9F72
:103A0000F00D1124E45BFE4F818190E0208130E0D5
:103A10003093B5042093B4049093B7048093B60414
:103A20008091090190910A010E94FB198091160171
:103A3000833029F481E08093BC048093BD0486E048
:103A40008C9F80018D9F100D1124045B1E4FF80187
:103A5000838190E0228130E03093B5042093B40458
:103A60009093B7048093B6048AE790E00E940A0D11
:103A7000F801858190E0248130E03093B5042093F3
:103A8000B4049093B7048093B6048091C4029091DB
:103A9000C5029195819591090E94FB1980911601AB
:103AA000843029F482E08093BC048093BD0486E0D6
:103AB0008C9FF0018D9FF00D1124E65CFE4F8181FB
:103AC00090E0208130E03093B5042093B4049093CB
:103AD000B7048093B60480910701909108010E9479
:103AE000FB1980911601843029F481E08093BC0495
:103AF0008093BD0426E02C9FC0012D9F900D1124C2
:103B0000EC01C65CDE4F8B8190E02A8130E030937F
:103B1000B5042093B4049093B7048093B60488E767
:103B200090E00E940A0D8D8190E02C8130E030936E
:103B3000B5042093B4049093B7048093B6048091A5
:103B4000C2029091C302919581959109DF91CF9125
:103B50001F910F91FF90EF900C94FB1981E0EDCE37
:103B60002091AE043091AF04C901079697FD0796E6
:103B700023E0959587952A95E1F72091AC04309143
:103B8000AD04829FA001839F500D929F500D112480
:103B900070E060E08091C7049091C8040C94653B8C
:103BA0000F931F93CF93DF93CDB7DEB761970FB617
:103BB000F894DEBF0FBECDBF0E9463070091BB0229
:103BC0001091BC022091BD023091BE02601B710BAE
:103BD000820B930B673771408105910508F457C13B
:103BE00060E0CE010A960E948218811178C060E0E0
:103BF00070E08EEF92EC6093E9017093EA0180939C
:103C0000EB019093EC011091660420E030E04EEF60
:103C100052EC0E943A38882309F4B3C01123F1F022
:103C200060E08DE00E94A1060E94E3178091E80108
:103C300081119EC0809113018093160110926B0434
:103C400010926C04109266040E94630760936704EC
:103C5000709368048093690490936A0460914B04A4
:103C600070914C046115710501F1072E000C880B51
:103C7000990B0E94E93820E030E040E251E40E94D4
:103C80003F389B01AC016091E9017091EA0180919C
:103C9000EB019091EC010E94CE376093E9017093A3
:103CA000EA018093EB019093EC0181E080935E0444
:103CB0000E94B9180E9415160E9463076093BB0208
:103CC0007093BC028093BD029093BE026091E901A3
:103CD0007091EA018091EB019091EC01CAC0BE01A4
:103CE0006F5F7F4FCE010A960E94A315882309F4C7
:103CF0007ECF6A8170E0762F6627770F770F770F78
:103D0000298148E0249F90011124262B372B8A8596
:103D10008031E1F468856623C9F070E08F81AB01E2
:103D2000481B5109CA019695982F88279795879522
:103D30000E94063ACB018097B90153E0660F771FC6
:103D40005A95E1F760789C01260F371F213854EE11
:103D500035070CF44CCFB901330F880B990B0E9437
:103D6000E93820E030E040E05CE30E94993943CF3D
:103D700083E18093160181E080936B0480936C044F
:103D800061CF111160C061E08DE00E94A1060E9428
:103D9000E3170E94B01D84E08093BC048093BD04AF
:103DA00001E010E01093B5040093B4041093B7043D
:103DB0000093B60461E088EA94E00E94330C82E04C
:103DC0008093BC048093BD0486E290E09093B50498
:103DD0008093B4041093B7040093B6048DE690E08A
:103DE0000E94D91B82E390E09093B5048093B404C1
:103DF00080E190E09093B7048093B60488E690E069
:103E00000E94D91B0E9454136CED75E080E090E095
:103E10000E94300780916C048823B1F181E0809387
:103E2000E8018091160181118093130181E0809354
:103E300066040E946307609367047093680480932C
:103E4000690490936A0481E080936C0493E19093F9
:103E5000160180936B040E9463076093BB0270930A
:103E6000BC028093BD029093BE0260E07FEF8FE7BB
:103E700097E461960FB6F894DEBF0FBECDBFDF9119
:103E8000CF911F910F9108951092E801CACF10921F
:103E90005E041CCF4F925F926F927F928F929F929F
:103EA000AF92BF92CF92DF92EF92FF92CF93DF93C8
:103EB000CDB7DEB72A970FB6F894DEBF0FBECDBFE1
:103EC0000E94D01D20E030E040E251E40E94993988
:103ED0000E94B13870934A046093490420915E04B3
:103EE000222309F431C120910F0130911001261BCA
:103EF000370B3A8729873093F0012093EF016091C7
:103F00000B0170910C01072E000C880B990B0E947D
:103F1000E9382AE037ED43E25CE30E9499396B010E
:103F20007C0129853A85B901330F880B990B0E94D2
:103F3000E9389B01AC01C701B6010E9499390E9482
:103F4000B13869837A838B839C8389819A8190932A
:103F5000C7028093C6026091C4027091C502072E09
:103F6000000C880B990B0E94E9382AE037ED43E2F8
:103F70005CE30E9499396B017C0180910901909169
:103F80000A0129853A85289FB001299F700D389F25
:103F9000700D1124072E000C880B990B0E94E93834
:103FA0009B01AC01C701B6010E94CE370E94B13817
:103FB0006B017093C5026093C4024090E40150907D
:103FC000E5016090E6017090E7014092E0015092B7
:103FD000E1016092E2017092E3010E9463070E9496
:103FE000E7384B015C018092E4019092E501A092D8
:103FF000E601B092E7018091DE019091DF016985D1
:104000007A85681B790B072E000C880B990B0E9490
:10401000E9386D837E838F839887A3019201C50160
:10402000B4010E94CD3720E030E04AE754E40E941A
:104030003F389B01AC016D817E818F8198850E9404
:104040003F384B015C016091070170910801072E18
:10405000000C880B990B0E94E9382AE037ED43E207
:104060005CE30E9499399B01AC01C501B4010E9437
:1040700099390E94B1382B017093C3026093C20238
:1040800060910D0170910E01072E000C880B990BA9
:104090000E94E93820E030E048EC52E40E943F38CA
:1040A0004B015C0189819A81C80ED91E4C0C5D1CA4
:1040B000B201550C880B990B0E94E9389B01AC01A9
:1040C000C501B4010E94993990580E94B13870938B
:1040D000C1026093C00270936404609363042091F2
:1040E000060130E02617370724F430936404209348
:1040F0006304209111018091630490916404281756
:10410000190629F024F010926404109263042985A2
:104110003A853093DF012093DE01809163042A9673
:104120000FB6F894DEBF0FBECDBFDF91CF91FF90E9
:10413000EF90DF90CF90BF90AF909F908F907F9047
:104140006F905F904F900895EACF0E94603B85ED9D
:104150008093BC0080913C0290913D02A0913E0270
:10416000B0913F020796A11DB11D23E0B695A7951A
:10417000979587952A95D1F72091BC0024FD03C01F
:1041800010928502089540913C0250913D02609149
:104190003E0270913F02452B462B472B69F3009757
:1041A000A105B10541F02AE22A95F1F700C0019777
:1041B000A109B109E1CF80913B020C946610CF9325
:1041C000DF93EB010E9454378883CE01DF91CF91BA
:1041D00008950F931F93CF93DF938C01EB010E94FF
:1041E00054378883C80101960E9454378983CE01D1
:1041F000DF91CF911F910F910895CF93DF931F927D
:10420000CDB7DEB76FE071E090E080E00E94E9207A
:104210006BE071E082E090E00E94E92069E071E0EB
:1042200084E090E00E94E92067E071E086E090E0A1
:104230000E94E9206DE071E088E090E00E94E920B2
:1042400061E171E08AE090E00E94DF2066E071E0C9
:104250008BE090E00E94DF2080916C048983BE0196
:104260006F5F7F4F8CE090E00E94DF2067E171E09C
:104270008DE090E00E94DF206BE474E08EE090E03F
:104280000E94E92064E171E080E190E00E94E92071
:1042900065E674E082E190E00E94DF206EE474E065
:1042A00083E190E00E94DF2084E190E00E94543797
:1042B00080934D0464E071E085E190E00E94E92084
:1042C00066E171E08FEF93E00E94DF2063E574E028
:1042D00087E190E00E94E9206AE574E089E190E0DE
:1042E0000E94E9206CE574E08BE190E00E94E920F7
:1042F0000F90DF91CF910895FF920F931F93CF936B
:10430000DF93EC01F62E08811981C8010E94543711
:10431000F81621F06F2DC8010E945C37CE01DF91A5
:10432000CF911F910F91FF9008950F931F93CF93FB
:10433000DF9300D0CDB7DEB78B019A838983FB0171
:104340006081CE0101960E947C21C8010F900F90E0
:10435000DF91CF911F910F910895EF92FF920F93EC
:104360001F93CF93DF9300D0CDB7DEB78C017B01D5
:104370009A838983FB016081CE0101960E947C2192
:104380000F5F1F4F1A830983F7016181CE010196E8
:104390000E947C21C7010F900F90DF91CF911F9158
:1043A0000F91FF90EF9008951F920F920FB60F920A
:1043B00011242F933F938F939F93AF93BF9380913B
:1043C000AC029091AD02A091AE02B091AF023091DB
:1043D000AB0223E0230F2D3758F50196A11DB11D27
:1043E0002093AB028093AC029093AD02A093AE02F7
:1043F000B093AF028091B0029091B102A091B2024D
:10440000B091B3020196A11DB11D8093B0029093AB
:10441000B102A093B202B093B302BF91AF919F914A
:104420008F913F912F910F900FBE0F901F90189575
:1044300026E8230F0296A11DB11DD2CF1F920F9225
:104440000FB60F9211242F933F934F935F936F9367
:104450007F938F939F93AF93BF93EF93FF93E091DD
:104460000201F09103010995FF91EF91BF91AF9186
:104470009F918F917F916F915F914F913F912F917C
:104480000F900FBE0F901F9018951F920F920FB6AE
:104490000F9211242F933F934F935F936F937F93CA
:1044A0008F939F93AF93BF93EF93FF93E09100019E
:1044B000F09101010995FF91EF91BF91AF919F910B
:1044C0008F917F916F915F914F913F912F910F90BD
:1044D0000FBE0F901F9018951F920F920FB60F925C
:1044E00011242F933F934F935F936F937F938F93F9
:1044F0009F93AF93BF93EF93FF938091B900887F11
:10450000803609F44AC0F0F5883209F4A7C018F5DE
:10451000803109F49BC0B8F4882309F4F9C08830CD
:1045200009F494C0FF91EF91BF91AF919F918F914A
:104530007F916F915F914F913F912F910F900FBE9F
:104540000F901F901895883109F488C0803251F778
:104550008093840214C0803409F49DC040F48033F9
:10456000B9F38833F9F68093840285ECB0C08035C6
:1045700009F485C0883509F496C0883499F60E94FC
:10458000A720D0CF883909F48CC038F5883729F0B6
:1045900050F4883611F0803729F683E08093850245
:1045A0001092830257C0883809F47BC0803919F013
:1045B000803809F0B7CF80918302803208F071C053
:1045C000E091830281E08E0F809383028091BB0093
:1045D000F0E0ED59FD4F80833DC0803B39F0E0F4C1
:1045E000803A09F479C0883A09F09CCF84E080933E
:1045F00085021092620210926102E091B702F0917E
:10460000B80209958091610281110FC081E0809309
:1046100061021092410209C0803C09F4A6CF883C97
:1046200009F4A3CF883B09F07DCFE091620281E0DD
:104630008E0F80936202F0E0EF5BFD4F80818093EC
:10464000BB00909162028091610229C08091AA0210
:104650008093BB0085EC8093BC0064CF9091A9024D
:104660008091A802981758F5E091A90281E08E0F79
:104670008093A902F0E0E857FD4F8081E9CFE091F7
:10468000A90281E08E0F8093A9028091BB00F0E027
:10469000E857FD4F80839091A9028091A802981756
:1046A000C8F285E8D8CFE091A90281E08E0F80930F
:1046B000A9028091BB00F0E0E857FD4F8083809114
:1046C000870281115CCF81E08093860284EA809327
:1046D000BC001092850226CF85EC8093BC0010921E
:1046E000850280918302803230F4E0918302F0E011
:1046F000ED59FD4F10826091830270E0E091B502A8
:10470000F091B60283E692E00995109283020ACFF7
:104710001092840234CF1F920F920FB60F92112481
:10472000CF92DF92EF92FF922F933F934F935F933D
:104730006F937F938F939F93AF93BF93CF93DF93A9
:10474000EF93FF93809176040E947806EC018091AC
:1047500075040E947806909174049F70CC0FDD1F41
:10476000C82B24E0929FC0011124825E9E4FC80F87
:10477000D92FD11DC881C0937404C073C03119F002
:10478000C03209F045C00E9463076B017C01809133
:10479000D8019091D901A091DA01B091DB01A70174
:1047A0009601281B390B4A0B5B0B62E370E080E03B
:1047B00090E00E949C372F5F80914E044FEF5FEF97
:1047C000882311F041E050E0C031C9F56091DC016F
:1047D0007091DD01249FC001259F900D1124860F4B
:1047E000971F9093DD018093DC01C092D801D09295
:1047F000D901E092DA01F092DB0181E080936D044F
:10480000C0926704D0926804E0926904F0926A044E
:10481000FF91EF91DF91CF91BF91AF919F918F91D8
:104820007F916F915F914F913F912F91FF90EF900A
:10483000DF90CF900F900FBE0F901F901895C03251
:10484000A1F68091DC019091DD01249FB001259FAC
:10485000700D1124861B970BC4CFCF93DF93ACE967
:10486000B4E013961C921E92129748EE53E060E05B
:1048700070E014964D935D936D937C9317978BE83E
:1048800091E011969C938E93E8EAF4E013821282F1
:1048900020E830E03583248380E290E097838683AC
:1048A0003187208793878287168A15861486178614
:1048B0001686C1E0C58BC48B8FEF9FEF938B828BE5
:1048C000918B808BC78B108E128E118E8DE991E0AB
:1048D00091838083148E138EB68FA58F10A2178EAE
:1048E0008FEF84A385A386A387A380A780E89AE19E
:1048F000A6E0B0E085AB96ABA7ABB0AF80EA96E898
:10490000A1E0B0E081AF92AFA3AFB4AF80E586AFD6
:1049100017AE60E087E00E94CF06ECEAFBE0E4918E
:10492000AEE8B4E0EC93E8E9FBE0E491F0E0EE0FF0
:10493000FF1FE957F44F8591949112969C938E93A3
:1049400011971B961C921B971D961C921D971C96E7
:104950001C921C971A961C921A9719961C921997DA
:1049600018961C92189717961C92179716961C92D9
:10497000169715961C92159714961C9214971396D9
:104980001C921397E7E7F4E0168A158A1182B28722
:10499000A18717821086108289E08383C483C58330
:1049A000C683C4E7D4E080E1898381E18A8360E043
:1049B00080E10E94CF0660E08A810E94CF0661E01C
:1049C00089810E94A10661E08A810E94A106188265
:1049D000DF91CF910895CF93DF93CDB7DEB767977F
:1049E0000FB6F894DEBF0FBECDBF789484B5826059
:1049F00084BD84B5816084BD85B5826085BD85B583
:104A0000816085BD80916E00816080936E00109200
:104A1000810080918100826080938100809181007B
:104A2000816080938100809180008160809380000C
:104A30008091B10084608093B1008091B00081606A
:104A40008093B00080917A00846080937A00809196
:104A50007A00826080937A0080917A0081608093EE
:104A60007A0080917A00806880937A001092C10069
:104A700061E08BE00E94CF0661E08BE00E94CF06F0
:104A800061E08BE00E94A10662E083E00E94CF0615
:104A90008FE697E090930301809302018091690073
:104AA000837F886080936900E99A8091C704909120
:104AB000C804892B09F0A4C02091AE043091AF0442
:104AC000C901079697FD0796B3E095958795BA9526
:104AD000E1F72091AC043091AD04AC01429FC001DC
:104AE000439F900D529F900D11240E943B3A90934A
:104AF000C8048093C704892B09F082C081E08093A9
:104B00006F04E0918004F091810413861586148669
:104B100012861186108617821682158214821382DD
:104B200010927E0410927F0411E0BE01665F7F4FF9
:104B300080918004909181040E940218882309F4D6
:104B400075C267E0CE010A960E94AE149989891356
:104B5000ECCF80917E048F5F80937E048A858832BB
:104B600031F008F048C2803111F08232F1F68091C4
:104B70007F048F5F80937F0480917704811128C028
:104B800080918004909181040E946B15BE01665F44
:104B90007F4F80918004909181040E944C1540E0E9
:104BA00064EB80918004909181040E94181580919B
:104BB0008004909181040E94C514082F8091800484
:104BC000909181040E946B15011102C0109377042B
:104BD0008A85803109F41BC2BE016F5F7F4FCE0111
:104BE0000A960E94A315882349F08D818F3309F41A
:104BF00010C208F007C28F3109F414C280E00AC263
:104C00000E94B01D2091AE043091AF048091AC049D
:104C10009091AD04B901213231050CF4E3C0605428
:104C2000710977FF02C06F5F7F4F75956795825559
:104C3000910997FD019600E410E022E530E04BEE8B
:104C400057E0959587950E94FF0E82E08093CA04F5
:104C50008091C5049091C604892B09F4D6C08CE3D9
:104C60008093C9041092BA021092B9021092710492
:104C7000109270040E94481080E296E09093B8026F
:104C80008093B70281E296E09093B6028093B502DA
:104C90008091D00487FD1EC061E00E94CF0661E0D4
:104CA0008091D0040E94A10661E070E080E090E075
:104CB0000E94300760E08091D0040E94A1066AE063
:104CC00070E080E090E00E94300761E08091D004C5
:104CD0000E94A1068091C5049091C604892B09F415
:104CE00053C16091DD047091DE048091DF049091E6
:104CF000E0040E94351064E08DEF95E00E94F3110E
:104D00006091AE04615088EA94E00E94A81264E0C9
:104D100089EF95E00E94F3118091CA0460E181302F
:104D200009F064E188EA94E00E94A81264E085EF4B
:104D300095E00E94F3118FE88093E5048091AC0424
:104D40009091AD048038910509F037C18091AE048F
:104D50009091AF048034910509F03FC18091CA045D
:104D6000813009F028C18FE98093E50412E16AEDF2
:104D700088EA94E00E94A812612F88EA94E00E94D9
:104D8000A81261E888EA94E00E94A8126091E50404
:104D900088EA94E00E94A81269ED88EA94E00E94F3
:104DA000A8128091CA0462E2813009F061EF88EABA
:104DB00094E00E94A81266E08FEE95E00E94F31145
:104DC0008091C5049091C604892B09F40AC16091B1
:104DD000E1047091E2048091E3049091E4040E9464
:104DE00035108FCE6052710977FF02C06F5F7F4F21
:104DF000759567958357910997FD019600E210E03C
:104E000023E730E04BE056E01CCF61E08091CE0418
:104E10000E94CF0661E08091CF040E94CF0680916E
:104E2000CE04082E000C990BFC01EF56F44FE491D0
:104E3000F0E0EE0FFF1FEF5FF94F259134913093B3
:104E4000D6042093D504FC01EB55F44FE491E09394
:104E5000DB048091CF04082E000C990BFC01EF5667
:104E6000F44FE491F0E0EE0FFF1FEF5FF94FA591D3
:104E7000B491B093D804A093D704FC01EB55F44F40
:104E8000E491E093DC048C91E82BEC938091C304D3
:104E90009091C404892B09F434C01FB7F894809111
:104EA000B402811127C0EBE9FBE08491EFEAFBE05B
:104EB0009491E82FF0E0EE0FFF1FEB51FA4FA59110
:104EC000B491EC91E92321F461E08AE00E94A1060B
:104ED00061E08AE00E94CF068CB580618CBD8CB504
:104EE00080648CBD61E08DE00E94CF0661E08BE0C4
:104EF0000E94CF068091B4028F5F8093B4021FBFDF
:104F0000C7CE61E08091CC040E94CF0661E0809121
:104F1000CD040E94CF068091CC04082E000C990B82
:104F2000FC01EF56F44FE491F0E0EE0FFF1FEF5F4E
:104F3000F94F259134913093D2042093D104FC0190
:104F4000EB55F44FE491E093D9048091CD04082E01
:104F5000000C990BFC01EF56F44FE491F0E0EE0FDA
:104F6000FF1FEF5FF94FA591B491B093D404A093C4
:104F7000D304FC01EB55F44FE491E093DA048C91F7
:104F8000E095E823EC9384CE8091C3049091C4040F
:104F9000892B31F08091E6049091E7040E94F50995
:104FA000E091D704F091D80490818091DC04809541
:104FB00089238083A0CE8FECD7CE8036910569F40B
:104FC0008091AE049091AF04409739F48091CA0467
:104FD000813029F480E18093E50412E0C8CE8FEAA5
:104FE000FACFE091D704F091D80480819091DC044D
:104FF000892B808386CD8B3309F4B9CD823409F0B7
:1050000094CDB5CD8F3581F08F3709F0F7CD8CE099
:1050100001C08AE090917A04981708F086CD8093B9
:105020007A0483CD89E0F6CF8BE0F4CF0E9463074A
:105030006093BB027093BC028093BD029093BE024A
:105040000E94B9180E94151667E771E080E090E0B1
:105050000E9430070E94D01D20E030E040E251E481
:105060000E9499390E94B1389B0170934A04609361
:105070004904E8ECF2E080E08F5F813819F0219379
:105080003193FACFE8ECF3E080E08F5F813811F0E4
:105090001192FBCF1092480410927B040E94FD20D5
:1050A00080914E04882329F062E088EA94E00E940F
:1050B000F9091982BE016F5F7F4F8FEF93E00E9465
:1050C000DF208981809313018093160180916F0402
:1050D000811169C00E94B01D1092BF0411E01093AD
:1050E000BC041093BD0482E090E09093BB048093D5
:1050F000BA049093B9048093B8048EE390E090933F
:10510000B5048093B4041092B7041092B60486EBF1
:105110009AE00E94D91B82E08093BC048093BD0476
:1051200085E090E09093B5048093B40488E090E02B
:105130009093B7048093B6048BEA9AE00E940A0D1C
:105140001093BC041093BD041092B5041092B404E3
:1051500089E190E09093B7048093B60488EC91E0E5
:105160000E94801985EC91E00E9480190E945413DE
:105170006CE271E080E090E00E943007A2E0EA2E4D
:10518000F12C01E110E020E830E047E050E070E071
:1051900060E088EA94E00E94190E68EE73E080E017
:1051A00090E00E94300780916800826080936800E0
:1051B00080916C008C6080936C000E946307609308
:1051C0006704709368048093690490936A0466246A
:1051D0006394712C80916F0481110C941537809128
:1051E0006C04811157C10E944A1F80915304909111
:1051F0005404892B09F422C10E9463076B017C01CE
:1052000080904F0490905004A0905104B0905204AC
:105210008C149D04AE04BF0408F010C12091530407
:1052200030915404A8EEB3E00E94BE37860E971E5C
:10523000A81EB91EC814D904EA04FB0408F0FEC075
:1052400081E08093600480915C0490915D04892BDF
:1052500069F180915A0490915B04892B39F10E9485
:1052600063074B015C012090560430905704409036
:10527000580450905904281439044A045B04C0F4BB
:1052800020915C0430915D04A0E6BAEE0E94BE3726
:105290006B017C01DC01CB01820D931DA41DB51DAA
:1052A00088169906AA06BB0608F0CBC010925F04C8
:1052B00080916304909164049093620480936104EC
:1052C00023EE2093120120916004222339F01092E2
:1052D00062041092610429E12093120120915F047D
:1052E000222361F0892B51F48091110190E0909379
:1052F00062048093610488E18093120180915E04CE
:10530000882321F010925E040E948416809161042B
:1053100090916204AFEFB0E0A81BB90BCD010E94E1
:1053200063170E946307009167041091680420913D
:10533000690430916A046B017C01C01AD10AE20A47
:10534000F30A2091140130911501A8EEB3E00E94F8
:10535000BE376C157D058E059F05C0F49091160132
:105360009923A1F080916604811102C090931301EA
:1053700090916504992341F0811106C066E171E0C6
:105380008FEF93E00E9495211092160180916E0498
:10539000882371F08091160181110AC080916C04FC
:1053A000811192C0809113018093160110926E04B6
:1053B00080916E048823D1F080916B04811116C016
:1053C00081E080936B04809116018E3009F48DC0CA
:1053D0008F3009F480C08D3039F480914E048823D9
:1053E00019F082E080936B0410926E0480916E0439
:1053F000882309F48FC080916B04882309F48AC044
:10540000E0911601E150E33108F080C0F0E0E55F83
:10541000F54D0C941A3A7C2ADF2AE92AF32ACE2A7F
:10542000FD2A092B132B292B1F2B332B442B652BE8
:105430004E2B7E2B1E2C862A862A242C109260044A
:1054400002CF20915A0430915B04A8EEB3E00E9491
:10545000BE37DC01CB018C0D9D1DAE1DBF1D820D25
:10546000931DA41DB51D88159905AA05BB0570F4EB
:105470000E94630760935604709357048093580406
:105480009093590481E08093550410CF81E080937C
:105490005F040ECF80911601882319F083E1809379
:1054A000160180916B04811103C081E080936B042D
:1054B0000E944A1F0E948416809117012FEF30E04E
:1054C000281B3109C9012BCF83E18093160181E0AC
:1054D00080936B046BCF1982BE016F5F7F4F84E1B5
:1054E00090E00E94DF2089817ACF1982BE016F5F30
:1054F0007F4F82E190E0F5CF80914D04882331F019
:105500006FE071E090E080E00E94AD2110926B04AA
:1055100010926E0480916D048823C9F080916B0411
:10552000811115C00E94F717E0911601EE2309F4CE
:10553000A3C166277727681B790B23E130E041E0A0
:1055400050E08E2F90E00E94090680931601809112
:105550001601882321F00E94E3170E94B01DE091FC
:105560001601E43110F00C94D336F0E0E654F54D1A
:105570000C941A3A3F2C5F2C762F9E2FB82F6B2D50
:10558000D22FF92F3230C3309430F030D0319E32E8
:105590003B321C335F33A233FA344E3680914D04D4
:1055A000882309F4B3CF80910D0190910E019A8365
:1055B0008983BE016F5F7F4F88E090E0A5CF809127
:1055C0004D04882309F4A2CF6BE071E082E090E003
:1055D0009BCF80914D04882309F498CF69E071E056
:1055E00084E090E091CF80914D04882309F48ECF20
:1055F00067E071E086E090E087CF80914D048823DA
:1056000009F484CF61E171E08AE090E00E94952185
:105610007DCF80914D04882309F478CF66E071E056
:105620008BE090E0F3CF80914D04882309F46ECF96
:1056300063E574E087E190E00E94AD2167CF80913F
:105640004D04882309F462CF6AE574E089E190E0B3
:10565000F3CF80914D04882309F458CF6CE574E0B2
:105660008BE190E0E9CF80914D04882309F44ECF7F
:1056700080914B0490914C049A838983BE016F5FA3
:105680007F4F8EE090E040CF80914D04882309F455
:105690003DCF64E171E080E190E0CECF813041F414
:1056A0001092650465E674E082E190E00E94952125
:1056B00080916B04823009F029CF81E080936504EA
:1056C00065E674E082E190E0A1CF813041F4109270
:1056D0004E046EE474E083E190E00E949521809195
:1056E0006B04823009F012CF81E080934E046EE4A7
:1056F00074E083E190E00E94952108CF823009F0A8
:105700008CC081E080934D0480910F019091100135
:105710009A838983BE016F5F7F4F90E080E00E9493
:10572000AD216BE071E082E090E00E94AD2169E084
:1057300071E084E090E00E94AD2167E071E086E0D6
:1057400090E00E94AD2180910D0190910E019A830D
:105750008983BE016F5F7F4F88E090E00E94AD219A
:1057600061E171E08AE090E00E94952166E071E0DD
:105770008BE090E00E94952180916C048983BE01AA
:105780006F5F7F4F8CE090E00E94952167E171E0B0
:105790008DE090E00E94952180914B0490914C0403
:1057A0009A838983BE016F5F7F4F8EE090E00E94F5
:1057B000AD2164E171E080E190E00E94AD2165E6F9
:1057C00074E082E190E00E9495216EE474E083E150
:1057D00090E00E94952184E190E09A838983609112
:1057E0004D04CE0101960E947C2164E071E085E1C8
:1057F00090E00E94AD2163E574E087E190E00E94B3
:10580000AD216AE574E089E190E00E94AD216CE58C
:1058100074E08BE190E00E94AD2180916B048130B7
:1058200009F074CE10924D0484E190E09A8389834C
:1058300060E0CE0101960E947C2168CE823009F0A2
:1058400065CE0E94FD2062CE80914D04811105C07D
:1058500080916F04882309F459CE80916C04898368
:10586000BE016F5F7F4F8CE090E00E94952167E161
:1058700071E08DE090E0CACE8091130166CE8091F8
:10588000BF02811106C081E08093BF028EEA0E94B0
:105890000A1380916E04882331F080911301809364
:1058A000160110926E0480916D04882309F439C3A7
:1058B0000E94F717809113018093160132C38091E3
:1058C0006D04882311F180916B048823F1F00E940C
:1058D000F71725E0289FB001299F700D112420EBB8
:1058E00034E046E05FEF80910F01909110010E943B
:1058F00009069C0165E070E00E94063A892B09F0D8
:10590000C5C03093100120930F017092B5046092CE
:10591000B4047092B7046092B60481E08093BC0432
:105920008093BD046091120188EA94E00E94330CD8
:1059300082E08093BC048093BD04A0916104B09187
:10594000620424E630E00E94203A2FEF30E040E08D
:1059500050E00E946A37CA01B9010E94D11982EC55
:105960009AE00E940A0D80916004882349F080919A
:105970005F04811105C069E188EA94E00E94330C5C
:1059800080915F04882359F08091630490916404AE
:10599000892B29F468E188EA94E00E94330C709224
:1059A000B5046092B40401E110E01093B7040093D1
:1059B000B60481E08093BC048093BD046BE088EA68
:1059C00094E00E94330C61E08091490490914A0474
:1059D0000E94011A81E490E09093B5048093B4048E
:1059E0001093B7040093B6046CE088EA94E00E9438
:1059F000330C61E080910F01909110010E94011A17
:105A000080916B04882309F444C0A0910F01B091E8
:105A10001001A93532E0B30714F0A8E5B2E0B7FFF2
:105A200002C0B0E0A0E02FE730E00E94203A28E575
:105A300032E040E050E00E946A3760E870E0621BAC
:105A4000730BE2E0EE2EF12C00E110E020E830E0F4
:105A500040E150E088EA94E00E94190EA0916304AE
:105A6000B09164042FE730E00E94203A2FEF30E03D
:105A700040E050E00E946A3762E0E62EF12C00E13F
:105A800010E050E040E070E060E0E4C221503109F5
:105A900038CFA0914904B0914A04A93542E0B40737
:105AA00014F0A8E5B2E0B7FF02C0B0E0A0E02FE735
:105AB00030E00E94203A28E532E040E050E00E94C9
:105AC0006A3772E0E72EF12C00E110E040E150E08F
:105AD00070E060E0BFCF80916D04882309F474C04A
